{
  "contractName": "SolnSquareVerifier",
  "abi": [
    {
      "anonymous": false,
      "inputs": [
        {
          "indexed": true,
          "internalType": "address",
          "name": "owner",
          "type": "address"
        },
        {
          "indexed": true,
          "internalType": "address",
          "name": "approved",
          "type": "address"
        },
        {
          "indexed": true,
          "internalType": "uint256",
          "name": "tokenId",
          "type": "uint256"
        }
      ],
      "name": "Approval",
      "type": "event",
      "signature": "0x8c5be1e5ebec7d5bd14f71427d1e84f3dd0314c0f7b2291e5b200ac8c7c3b925"
    },
    {
      "anonymous": false,
      "inputs": [
        {
          "indexed": true,
          "internalType": "address",
          "name": "owner",
          "type": "address"
        },
        {
          "indexed": true,
          "internalType": "address",
          "name": "operator",
          "type": "address"
        },
        {
          "indexed": false,
          "internalType": "bool",
          "name": "approved",
          "type": "bool"
        }
      ],
      "name": "ApprovalForAll",
      "type": "event",
      "signature": "0x17307eab39ab6107e8899845ad3d59bd9653f200f220920489ca2b5937696c31"
    },
    {
      "anonymous": false,
      "inputs": [
        {
          "indexed": false,
          "internalType": "address",
          "name": "sender",
          "type": "address"
        }
      ],
      "name": "Paused",
      "type": "event",
      "signature": "0x62e78cea01bee320cd4e420270b5ea74000d11b0c9f74754ebdbfc544b05a258"
    },
    {
      "anonymous": false,
      "inputs": [
        {
          "indexed": true,
          "internalType": "address",
          "name": "from",
          "type": "address"
        },
        {
          "indexed": true,
          "internalType": "address",
          "name": "to",
          "type": "address"
        },
        {
          "indexed": true,
          "internalType": "uint256",
          "name": "tokenId",
          "type": "uint256"
        }
      ],
      "name": "Transfer",
      "type": "event",
      "signature": "0xddf252ad1be2c89b69c2b068fc378daa952ba7f163c4a11628f55a4df523b3ef"
    },
    {
      "anonymous": false,
      "inputs": [
        {
          "indexed": false,
          "internalType": "address",
          "name": "_address",
          "type": "address"
        },
        {
          "indexed": false,
          "internalType": "uint256",
          "name": "_index",
          "type": "uint256"
        }
      ],
      "name": "newSolution",
      "type": "event",
      "signature": "0x9ac72a2178661643c4628b8486b79d85d6f51ab2bcf35cd552589e0251fcd778"
    },
    {
      "anonymous": false,
      "inputs": [
        {
          "indexed": false,
          "internalType": "address",
          "name": "sender",
          "type": "address"
        }
      ],
      "name": "notInPaused",
      "type": "event",
      "signature": "0x65a98092c461561c4059afd90c26158ce0dfa12d2225b1bcaf0691ee366b138a"
    },
    {
      "anonymous": false,
      "inputs": [
        {
          "indexed": false,
          "internalType": "address",
          "name": "previousOwner",
          "type": "address"
        },
        {
          "indexed": false,
          "internalType": "address",
          "name": "newOwner",
          "type": "address"
        }
      ],
      "name": "transferOwnerShip",
      "type": "event",
      "signature": "0x5b94a5f1a151b859c1d5794b3740dff40527ffc8d12281797c100d36bcfd1321"
    },
    {
      "constant": false,
      "inputs": [
        {
          "internalType": "bytes32",
          "name": "_myid",
          "type": "bytes32"
        },
        {
          "internalType": "string",
          "name": "_result",
          "type": "string"
        }
      ],
      "name": "__callback",
      "outputs": [],
      "payable": false,
      "stateMutability": "nonpayable",
      "type": "function",
      "signature": "0x27dc297e"
    },
    {
      "constant": false,
      "inputs": [
        {
          "internalType": "bytes32",
          "name": "_myid",
          "type": "bytes32"
        },
        {
          "internalType": "string",
          "name": "_result",
          "type": "string"
        },
        {
          "internalType": "bytes",
          "name": "_proof",
          "type": "bytes"
        }
      ],
      "name": "__callback",
      "outputs": [],
      "payable": false,
      "stateMutability": "nonpayable",
      "type": "function",
      "signature": "0x38bbfa50"
    },
    {
      "constant": false,
      "inputs": [
        {
          "internalType": "address",
          "name": "to",
          "type": "address"
        },
        {
          "internalType": "uint256",
          "name": "tokenId",
          "type": "uint256"
        }
      ],
      "name": "approve",
      "outputs": [],
      "payable": false,
      "stateMutability": "nonpayable",
      "type": "function",
      "signature": "0x095ea7b3"
    },
    {
      "constant": true,
      "inputs": [
        {
          "internalType": "address",
          "name": "owner",
          "type": "address"
        }
      ],
      "name": "balanceOf",
      "outputs": [
        {
          "internalType": "uint256",
          "name": "",
          "type": "uint256"
        }
      ],
      "payable": false,
      "stateMutability": "view",
      "type": "function",
      "signature": "0x70a08231"
    },
    {
      "constant": true,
      "inputs": [
        {
          "internalType": "uint256",
          "name": "tokenId",
          "type": "uint256"
        }
      ],
      "name": "getApproved",
      "outputs": [
        {
          "internalType": "address",
          "name": "",
          "type": "address"
        }
      ],
      "payable": false,
      "stateMutability": "view",
      "type": "function",
      "signature": "0x081812fc"
    },
    {
      "constant": true,
      "inputs": [],
      "name": "getOwner",
      "outputs": [
        {
          "internalType": "address",
          "name": "",
          "type": "address"
        }
      ],
      "payable": false,
      "stateMutability": "view",
      "type": "function",
      "signature": "0x893d20e8"
    },
    {
      "constant": true,
      "inputs": [],
      "name": "getter",
      "outputs": [
        {
          "internalType": "string",
          "name": "",
          "type": "string"
        },
        {
          "internalType": "string",
          "name": "",
          "type": "string"
        },
        {
          "internalType": "string",
          "name": "",
          "type": "string"
        }
      ],
      "payable": false,
      "stateMutability": "view",
      "type": "function",
      "signature": "0x993a04b7"
    },
    {
      "constant": true,
      "inputs": [
        {
          "internalType": "address",
          "name": "owner",
          "type": "address"
        },
        {
          "internalType": "address",
          "name": "operator",
          "type": "address"
        }
      ],
      "name": "isApprovedForAll",
      "outputs": [
        {
          "internalType": "bool",
          "name": "",
          "type": "bool"
        }
      ],
      "payable": false,
      "stateMutability": "view",
      "type": "function",
      "signature": "0xe985e9c5"
    },
    {
      "constant": false,
      "inputs": [
        {
          "internalType": "address",
          "name": "to",
          "type": "address"
        },
        {
          "internalType": "uint256",
          "name": "tokenId",
          "type": "uint256"
        }
      ],
      "name": "mint",
      "outputs": [
        {
          "internalType": "bool",
          "name": "",
          "type": "bool"
        }
      ],
      "payable": false,
      "stateMutability": "nonpayable",
      "type": "function",
      "signature": "0x40c10f19"
    },
    {
      "constant": true,
      "inputs": [
        {
          "internalType": "uint256",
          "name": "tokenId",
          "type": "uint256"
        }
      ],
      "name": "ownerOf",
      "outputs": [
        {
          "internalType": "address",
          "name": "",
          "type": "address"
        }
      ],
      "payable": false,
      "stateMutability": "view",
      "type": "function",
      "signature": "0x6352211e"
    },
    {
      "constant": false,
      "inputs": [
        {
          "internalType": "address",
          "name": "from",
          "type": "address"
        },
        {
          "internalType": "address",
          "name": "to",
          "type": "address"
        },
        {
          "internalType": "uint256",
          "name": "tokenId",
          "type": "uint256"
        }
      ],
      "name": "safeTransferFrom",
      "outputs": [],
      "payable": false,
      "stateMutability": "nonpayable",
      "type": "function",
      "signature": "0x42842e0e"
    },
    {
      "constant": false,
      "inputs": [
        {
          "internalType": "address",
          "name": "from",
          "type": "address"
        },
        {
          "internalType": "address",
          "name": "to",
          "type": "address"
        },
        {
          "internalType": "uint256",
          "name": "tokenId",
          "type": "uint256"
        },
        {
          "internalType": "bytes",
          "name": "_data",
          "type": "bytes"
        }
      ],
      "name": "safeTransferFrom",
      "outputs": [],
      "payable": false,
      "stateMutability": "nonpayable",
      "type": "function",
      "signature": "0xb88d4fde"
    },
    {
      "constant": false,
      "inputs": [
        {
          "internalType": "address",
          "name": "to",
          "type": "address"
        },
        {
          "internalType": "bool",
          "name": "approved",
          "type": "bool"
        }
      ],
      "name": "setApprovalForAll",
      "outputs": [],
      "payable": false,
      "stateMutability": "nonpayable",
      "type": "function",
      "signature": "0xa22cb465"
    },
    {
      "constant": false,
      "inputs": [
        {
          "internalType": "bool",
          "name": "status",
          "type": "bool"
        }
      ],
      "name": "setPaused",
      "outputs": [],
      "payable": false,
      "stateMutability": "nonpayable",
      "type": "function",
      "signature": "0x16c38b3c"
    },
    {
      "constant": true,
      "inputs": [
        {
          "internalType": "bytes4",
          "name": "interfaceId",
          "type": "bytes4"
        }
      ],
      "name": "supportsInterface",
      "outputs": [
        {
          "internalType": "bool",
          "name": "",
          "type": "bool"
        }
      ],
      "payable": false,
      "stateMutability": "view",
      "type": "function",
      "signature": "0x01ffc9a7"
    },
    {
      "constant": true,
      "inputs": [
        {
          "internalType": "uint256",
          "name": "index",
          "type": "uint256"
        }
      ],
      "name": "tokenByIndex",
      "outputs": [
        {
          "internalType": "uint256",
          "name": "",
          "type": "uint256"
        }
      ],
      "payable": false,
      "stateMutability": "view",
      "type": "function",
      "signature": "0x4f6ccce7"
    },
    {
      "constant": true,
      "inputs": [
        {
          "internalType": "address",
          "name": "owner",
          "type": "address"
        },
        {
          "internalType": "uint256",
          "name": "index",
          "type": "uint256"
        }
      ],
      "name": "tokenOfOwnerByIndex",
      "outputs": [
        {
          "internalType": "uint256",
          "name": "",
          "type": "uint256"
        }
      ],
      "payable": false,
      "stateMutability": "view",
      "type": "function",
      "signature": "0x2f745c59"
    },
    {
      "constant": true,
      "inputs": [
        {
          "internalType": "uint256",
          "name": "tokenId",
          "type": "uint256"
        }
      ],
      "name": "tokenURI",
      "outputs": [
        {
          "internalType": "string",
          "name": "",
          "type": "string"
        }
      ],
      "payable": false,
      "stateMutability": "view",
      "type": "function",
      "signature": "0xc87b56dd"
    },
    {
      "constant": true,
      "inputs": [],
      "name": "totalSupply",
      "outputs": [
        {
          "internalType": "uint256",
          "name": "",
          "type": "uint256"
        }
      ],
      "payable": false,
      "stateMutability": "view",
      "type": "function",
      "signature": "0x18160ddd"
    },
    {
      "constant": false,
      "inputs": [
        {
          "internalType": "address",
          "name": "from",
          "type": "address"
        },
        {
          "internalType": "address",
          "name": "to",
          "type": "address"
        },
        {
          "internalType": "uint256",
          "name": "tokenId",
          "type": "uint256"
        }
      ],
      "name": "transferFrom",
      "outputs": [],
      "payable": false,
      "stateMutability": "nonpayable",
      "type": "function",
      "signature": "0x23b872dd"
    },
    {
      "constant": false,
      "inputs": [
        {
          "internalType": "address",
          "name": "newOwner",
          "type": "address"
        }
      ],
      "name": "transferOwnership",
      "outputs": [],
      "payable": false,
      "stateMutability": "nonpayable",
      "type": "function",
      "signature": "0xf2fde38b"
    },
    {
      "constant": false,
      "inputs": [
        {
          "internalType": "bytes32",
          "name": "solutionHash",
          "type": "bytes32"
        },
        {
          "internalType": "address",
          "name": "_address",
          "type": "address"
        },
        {
          "internalType": "uint256",
          "name": "_index",
          "type": "uint256"
        }
      ],
      "name": "solutionCreated",
      "outputs": [],
      "payable": false,
      "stateMutability": "nonpayable",
      "type": "function",
      "signature": "0x47ac7176"
    },
    {
      "constant": false,
      "inputs": [
        {
          "internalType": "address",
          "name": "_address",
          "type": "address"
        },
        {
          "internalType": "uint256",
          "name": "tokenId",
          "type": "uint256"
        },
        {
          "internalType": "uint256[2]",
          "name": "a",
          "type": "uint256[2]"
        },
        {
          "internalType": "uint256[2][2]",
          "name": "b",
          "type": "uint256[2][2]"
        },
        {
          "internalType": "uint256[2]",
          "name": "c",
          "type": "uint256[2]"
        },
        {
          "internalType": "uint256[2]",
          "name": "d",
          "type": "uint256[2]"
        }
      ],
      "name": "mintNewNFT",
      "outputs": [],
      "payable": false,
      "stateMutability": "nonpayable",
      "type": "function",
      "signature": "0x6aa69d4e"
    }
  ],
  "bytecode": "0x60806040526040518060400160405280600f81526020017f5265616c457374617465546f6b656e00000000000000000000000000000000008152506040518060400160405280600381526020017f52455400000000000000000000000000000000000000000000000000000000008152506040518060600160405280603f815260200162003a2d603f9139336000806101000a81548173ffffffffffffffffffffffffffffffffffffffff021916908373ffffffffffffffffffffffffffffffffffffffff160217905550620000dc60006200019060201b60201c565b620000f46301ffc9a760e01b620002ce60201b60201c565b6200010c6380ac58cd60e01b620002ce60201b60201c565b6200012463780e9d6360e01b620002ce60201b60201c565b82600f90805190602001906200013c9291906200036e565b508160109080519060200190620001559291906200036e565b5080601190805190602001906200016e9291906200036e565b5062000187635b5e139f60e01b620002ce60201b60201c565b5050506200051c565b6000809054906101000a900473ffffffffffffffffffffffffffffffffffffffff1673ffffffffffffffffffffffffffffffffffffffff163373ffffffffffffffffffffffffffffffffffffffff161462000222576040517f08c379a000000000000000000000000000000000000000000000000000000000815260040162000219906200048d565b60405180910390fd5b80600060146101000a81548160ff021916908315150217905550600060149054906101000a900460ff161562000291577f62e78cea01bee320cd4e420270b5ea74000d11b0c9f74754ebdbfc544b05a2583360405162000283919062000470565b60405180910390a1620002cb565b7f65a98092c461561c4059afd90c26158ce0dfa12d2225b1bcaf0691ee366b138a33604051620002c2919062000470565b60405180910390a15b50565b63ffffffff60e01b817bffffffffffffffffffffffffffffffffffffffffffffffffffffffff191614156200030257600080fd5b6001806000837bffffffffffffffffffffffffffffffffffffffffffffffffffffffff19167bffffffffffffffffffffffffffffffffffffffffffffffffffffffff1916815260200190815260200160002060006101000a81548160ff02191690831515021790555050565b828054600181600116156101000203166002900490600052602060002090601f016020900481019282601f10620003b157805160ff1916838001178555620003e2565b82800160010185558215620003e2579182015b82811115620003e1578251825591602001919060010190620003c4565b5b509050620003f19190620003f5565b5090565b6200041a91905b8082111562000416576000816000905550600101620003fc565b5090565b90565b6200042881620004e0565b82525050565b60006200043d601c83620004af565b91507f43616c6c6572206973206e6f7420636f6e7472616374206f776e6572000000006000830152602082019050919050565b60006020820190506200048760008301846200041d565b92915050565b60006020820190508181036000830152620004a8816200042e565b9050919050565b600082825260208201905092915050565b600073ffffffffffffffffffffffffffffffffffffffff82169050919050565b6000620004ed82620004f4565b9050919050565b6000620005018262000508565b9050919050565b60006200051582620004c0565b9050919050565b613501806200052c6000396000f3fe608060405234801561001057600080fd5b506004361061014d5760003560e01c806347ac7176116100c3578063993a04b71161007c578063993a04b7146103be578063a22cb465146103de578063b88d4fde146103fa578063c87b56dd14610416578063e985e9c514610446578063f2fde38b146104765761014d565b806347ac7176146102d85780634f6ccce7146102f45780636352211e146103245780636aa69d4e1461035457806370a0823114610370578063893d20e8146103a05761014d565b806323b872dd1161011557806323b872dd1461020857806327dc297e146102245780632f745c591461024057806338bbfa501461027057806340c10f191461028c57806342842e0e146102bc5761014d565b806301ffc9a714610152578063081812fc14610182578063095ea7b3146101b257806316c38b3c146101ce57806318160ddd146101ea575b600080fd5b61016c600480360361016791908101906129f5565b610492565b6040516101799190612ff6565b60405180910390f35b61019c60048036036101979190810190612a47565b6104fa565b6040516101a99190612f22565b60405180910390f35b6101cc60048036036101c791908101906127e2565b610537565b005b6101e860048036036101e391908101906128aa565b610740565b005b6101f2610875565b6040516101ff919061317f565b60405180910390f35b610222600480360361021d91908101906126dc565b610882565b005b61023e60048036036102399190810190612922565b6108a5565b005b61025a600480360361025591908101906127e2565b6108e8565b604051610267919061317f565b60405180910390f35b61028a60048036036102859190810190612976565b61095b565b005b6102a660048036036102a191908101906127e2565b610960565b6040516102b39190612ff6565b60405180910390f35b6102d660048036036102d191908101906126dc565b610a0e565b005b6102f260048036036102ed91908101906128d3565b610a2e565b005b61030e60048036036103099190810190612a47565b610b90565b60405161031b919061317f565b60405180910390f35b61033e60048036036103399190810190612a47565b610bc4565b60405161034b9190612f22565b60405180910390f35b61036e6004803603610369919081019061281e565b610c01565b005b61038a60048036036103859190810190612677565b610cf6565b604051610397919061317f565b60405180910390f35b6103a8610d46565b6040516103b59190612f22565b60405180910390f35b6103c6610d6f565b6040516103d593929190613033565b60405180910390f35b6103f860048036036103f391908101906127a6565b610f59565b005b610414600480360361040f919081019061272b565b61108f565b005b610430600480360361042b9190810190612a47565b6110b5565b60405161043d9190613011565b60405180910390f35b610460600480360361045b91908101906126a0565b61117c565b60405161046d9190612ff6565b60405180910390f35b610490600480360361048b9190810190612677565b611210565b005b600060016000837bffffffffffffffffffffffffffffffffffffffffffffffffffffffff19167bffffffffffffffffffffffffffffffffffffffffffffffffffffffff1916815260200190815260200160002060009054906101000a900460ff169050919050565b60006003600083815260200190815260200160002060009054906101000a900473ffffffffffffffffffffffffffffffffffffffff169050919050565b6002600082815260200190815260200160002060009054906101000a900473ffffffffffffffffffffffffffffffffffffffff1673ffffffffffffffffffffffffffffffffffffffff168273ffffffffffffffffffffffffffffffffffffffff1614156105d9576040517f08c379a00000000000000000000000000000000000000000000000000000000081526004016105d09061311f565b60405180910390fd5b6105e1610d46565b73ffffffffffffffffffffffffffffffffffffffff163373ffffffffffffffffffffffffffffffffffffffff16148061065357506106526002600083815260200190815260200160002060009054906101000a900473ffffffffffffffffffffffffffffffffffffffff163361117c565b5b61065c57600080fd5b816003600083815260200190815260200160002060006101000a81548173ffffffffffffffffffffffffffffffffffffffff021916908373ffffffffffffffffffffffffffffffffffffffff160217905550808273ffffffffffffffffffffffffffffffffffffffff166002600084815260200190815260200160002060009054906101000a900473ffffffffffffffffffffffffffffffffffffffff1673ffffffffffffffffffffffffffffffffffffffff167f8c5be1e5ebec7d5bd14f71427d1e84f3dd0314c0f7b2291e5b200ac8c7c3b92560405160405180910390a45050565b6000809054906101000a900473ffffffffffffffffffffffffffffffffffffffff1673ffffffffffffffffffffffffffffffffffffffff163373ffffffffffffffffffffffffffffffffffffffff16146107cf576040517f08c379a00000000000000000000000000000000000000000000000000000000081526004016107c6906130ff565b60405180910390fd5b80600060146101000a81548160ff021916908315150217905550600060149054906101000a900460ff161561083a577f62e78cea01bee320cd4e420270b5ea74000d11b0c9f74754ebdbfc544b05a2583360405161082d9190612f3d565b60405180910390a1610872565b7f65a98092c461561c4059afd90c26158ce0dfa12d2225b1bcaf0691ee366b138a336040516108699190612f3d565b60405180910390a15b50565b6000600880549050905090565b61088c33826113b4565b61089557600080fd5b6108a0838383611449565b505050565b6108e4828260006040519080825280601f01601f1916602001820160405280156108de5781602001600182028038833980820191505090505b5061095b565b5050565b60006108f383610cf6565b82106108fe57600080fd5b600660008473ffffffffffffffffffffffffffffffffffffffff1673ffffffffffffffffffffffffffffffffffffffff168152602001908152602001600020828154811061094857fe5b9060005260206000200154905092915050565b505050565b60008060009054906101000a900473ffffffffffffffffffffffffffffffffffffffff1673ffffffffffffffffffffffffffffffffffffffff163373ffffffffffffffffffffffffffffffffffffffff16146109f1576040517f08c379a00000000000000000000000000000000000000000000000000000000081526004016109e8906130ff565b60405180910390fd5b6109fb838361146d565b610a048261148e565b6001905092915050565b610a298383836040518060200160405280600081525061108f565b505050565b816014600085815260200190815260200160002060010160006101000a81548173ffffffffffffffffffffffffffffffffffffffff021916908373ffffffffffffffffffffffffffffffffffffffff16021790555080601460008581526020019081526020016000206000018190555060136014600085815260200190815260200160002090806001815401808255809150509060018203906000526020600020906002020160009091929091909150600082015481600001556001820160009054906101000a900473ffffffffffffffffffffffffffffffffffffffff168160010160006101000a81548173ffffffffffffffffffffffffffffffffffffffff021916908373ffffffffffffffffffffffffffffffffffffffff1602179055505050507f9ac72a2178661643c4628b8486b79d85d6f51ab2bcf35cd552589e0251fcd7788282604051610b83929190612fcd565b60405180910390a1505050565b6000610b9a610875565b8210610ba557600080fd5b60088281548110610bb257fe5b90600052602060002001549050919050565b60006002600083815260200190815260200160002060009054906101000a900473ffffffffffffffffffffffffffffffffffffffff169050919050565b600084848484604051602001610c1a9493929190612ed4565b604051602081830303815290604052805190602001209050600073ffffffffffffffffffffffffffffffffffffffff166014600083815260200190815260200160002060010160009054906101000a900473ffffffffffffffffffffffffffffffffffffffff1673ffffffffffffffffffffffffffffffffffffffff1614610cd7576040517f08c379a0000000000000000000000000000000000000000000000000000000008152600401610cce9061307f565b60405180910390fd5b610ce2818888610a2e565b610cec8787610960565b5050505050505050565b6000610d3f600460008473ffffffffffffffffffffffffffffffffffffffff1673ffffffffffffffffffffffffffffffffffffffff1681526020019081526020016000206115ac565b9050919050565b60008060009054906101000a900473ffffffffffffffffffffffffffffffffffffffff16905090565b6060806060600f60106011828054600181600116156101000203166002900480601f016020809104026020016040519081016040528092919081815260200182805460018160011615610100020316600290048015610e0f5780601f10610de457610100808354040283529160200191610e0f565b820191906000526020600020905b815481529060010190602001808311610df257829003601f168201915b50505050509250818054600181600116156101000203166002900480601f016020809104026020016040519081016040528092919081815260200182805460018160011615610100020316600290048015610eab5780601f10610e8057610100808354040283529160200191610eab565b820191906000526020600020905b815481529060010190602001808311610e8e57829003601f168201915b50505050509150808054600181600116156101000203166002900480601f016020809104026020016040519081016040528092919081815260200182805460018160011615610100020316600290048015610f475780601f10610f1c57610100808354040283529160200191610f47565b820191906000526020600020905b815481529060010190602001808311610f2a57829003601f168201915b50505050509050925092509250909192565b3373ffffffffffffffffffffffffffffffffffffffff168273ffffffffffffffffffffffffffffffffffffffff161415610f9257600080fd5b80600560003373ffffffffffffffffffffffffffffffffffffffff1673ffffffffffffffffffffffffffffffffffffffff16815260200190815260200160002060008473ffffffffffffffffffffffffffffffffffffffff1673ffffffffffffffffffffffffffffffffffffffff16815260200190815260200160002060006101000a81548160ff0219169083151502179055508173ffffffffffffffffffffffffffffffffffffffff163373ffffffffffffffffffffffffffffffffffffffff167f17307eab39ab6107e8899845ad3d59bd9653f200f220920489ca2b5937696c31836040516110839190612ff6565b60405180910390a35050565b61109a848484610882565b6110a6848484846115ba565b6110af57600080fd5b50505050565b60606110c0826116d1565b6110c957600080fd5b601260008381526020019081526020016000208054600181600116156101000203166002900480601f0160208091040260200160405190810160405280929190818152602001828054600181600116156101000203166002900480156111705780601f1061114557610100808354040283529160200191611170565b820191906000526020600020905b81548152906001019060200180831161115357829003601f168201915b50505050509050919050565b6000600560008473ffffffffffffffffffffffffffffffffffffffff1673ffffffffffffffffffffffffffffffffffffffff16815260200190815260200160002060008373ffffffffffffffffffffffffffffffffffffffff1673ffffffffffffffffffffffffffffffffffffffff16815260200190815260200160002060009054906101000a900460ff16905092915050565b6000809054906101000a900473ffffffffffffffffffffffffffffffffffffffff1673ffffffffffffffffffffffffffffffffffffffff163373ffffffffffffffffffffffffffffffffffffffff161461129f576040517f08c379a0000000000000000000000000000000000000000000000000000000008152600401611296906130ff565b60405180910390fd5b80600073ffffffffffffffffffffffffffffffffffffffff168173ffffffffffffffffffffffffffffffffffffffff161415611310576040517f08c379a00000000000000000000000000000000000000000000000000000000081526004016113079061309f565b60405180910390fd5b60008060009054906101000a900473ffffffffffffffffffffffffffffffffffffffff169050826000806101000a81548173ffffffffffffffffffffffffffffffffffffffff021916908373ffffffffffffffffffffffffffffffffffffffff1602179055507f5b94a5f1a151b859c1d5794b3740dff40527ffc8d12281797c100d36bcfd132181846040516113a7929190612fa4565b60405180910390a1505050565b6000806113c083610bc4565b90508073ffffffffffffffffffffffffffffffffffffffff168473ffffffffffffffffffffffffffffffffffffffff16148061142f57508373ffffffffffffffffffffffffffffffffffffffff16611417846104fa565b73ffffffffffffffffffffffffffffffffffffffff16145b80611440575061143f818561117c565b5b91505092915050565b611454838383611743565b61145e83826119d6565b6114688282611b74565b505050565b6114778282611c3b565b6114818282611b74565b61148a81611d7c565b5050565b611497816116d1565b6114d6576040517f08c379a00000000000000000000000000000000000000000000000000000000081526004016114cd9061315f565b60405180910390fd5b61158260118054600181600116156101000203166002900480601f01602080910402602001604051908101604052809291908181526020018280546001816001161561010002031660029004801561156f5780601f106115445761010080835404028352916020019161156f565b820191906000526020600020905b81548152906001019060200180831161155257829003601f168201915b505050505061157d83611dc8565b611ef5565b6012600083815260200190815260200160002090805190602001906115a8929190612324565b5050565b600081600001549050919050565b60006115db8473ffffffffffffffffffffffffffffffffffffffff16611f39565b6115e857600190506116c9565b60008473ffffffffffffffffffffffffffffffffffffffff1663150b7a02338887876040518563ffffffff1660e01b81526004016116299493929190612f58565b602060405180830381600087803b15801561164357600080fd5b505af1158015611657573d6000803e3d6000fd5b505050506040513d601f19601f8201168201806040525061167b9190810190612a1e565b905063150b7a0260e01b7bffffffffffffffffffffffffffffffffffffffffffffffffffffffff1916817bffffffffffffffffffffffffffffffffffffffffffffffffffffffff1916149150505b949350505050565b6000806002600084815260200190815260200160002060009054906101000a900473ffffffffffffffffffffffffffffffffffffffff169050600073ffffffffffffffffffffffffffffffffffffffff168173ffffffffffffffffffffffffffffffffffffffff161415915050919050565b8273ffffffffffffffffffffffffffffffffffffffff166002600083815260200190815260200160002060009054906101000a900473ffffffffffffffffffffffffffffffffffffffff1673ffffffffffffffffffffffffffffffffffffffff16146117e4576040517f08c379a00000000000000000000000000000000000000000000000000000000081526004016117db906130df565b60405180910390fd5b6118038273ffffffffffffffffffffffffffffffffffffffff16611f39565b15611843576040517f08c379a000000000000000000000000000000000000000000000000000000000815260040161183a906130bf565b60405180910390fd5b60006003600083815260200190815260200160002060006101000a81548173ffffffffffffffffffffffffffffffffffffffff021916908373ffffffffffffffffffffffffffffffffffffffff1602179055506118dd600460008573ffffffffffffffffffffffffffffffffffffffff1673ffffffffffffffffffffffffffffffffffffffff168152602001908152602001600020611f84565b611924600460008473ffffffffffffffffffffffffffffffffffffffff1673ffffffffffffffffffffffffffffffffffffffff168152602001908152602001600020611fa7565b816002600083815260200190815260200160002060006101000a81548173ffffffffffffffffffffffffffffffffffffffff021916908373ffffffffffffffffffffffffffffffffffffffff160217905550808273ffffffffffffffffffffffffffffffffffffffff168473ffffffffffffffffffffffffffffffffffffffff167fddf252ad1be2c89b69c2b068fc378daa952ba7f163c4a11628f55a4df523b3ef60405160405180910390a4505050565b6000611a2e6001600660008673ffffffffffffffffffffffffffffffffffffffff1673ffffffffffffffffffffffffffffffffffffffff16815260200190815260200160002080549050611fbd90919063ffffffff16565b9050600060076000848152602001908152602001600020549050818114611b1b576000600660008673ffffffffffffffffffffffffffffffffffffffff1673ffffffffffffffffffffffffffffffffffffffff1681526020019081526020016000208381548110611a9b57fe5b9060005260206000200154905080600660008773ffffffffffffffffffffffffffffffffffffffff1673ffffffffffffffffffffffffffffffffffffffff1681526020019081526020016000208381548110611af357fe5b9060005260206000200181905550816007600083815260200190815260200160002081905550505b600660008573ffffffffffffffffffffffffffffffffffffffff1673ffffffffffffffffffffffffffffffffffffffff168152602001908152602001600020805480919060019003611b6d91906123a4565b5050505050565b600660008373ffffffffffffffffffffffffffffffffffffffff1673ffffffffffffffffffffffffffffffffffffffff168152602001908152602001600020805490506007600083815260200190815260200160002081905550600660008373ffffffffffffffffffffffffffffffffffffffff1673ffffffffffffffffffffffffffffffffffffffff1681526020019081526020016000208190806001815401808255809150509060018203906000526020600020016000909192909190915055505050565b611c44816116d1565b15611c84576040517f08c379a0000000000000000000000000000000000000000000000000000000008152600401611c7b9061313f565b60405180910390fd5b816002600083815260200190815260200160002060006101000a81548173ffffffffffffffffffffffffffffffffffffffff021916908373ffffffffffffffffffffffffffffffffffffffff160217905550611d1d600460008473ffffffffffffffffffffffffffffffffffffffff1673ffffffffffffffffffffffffffffffffffffffff168152602001908152602001600020611fa7565b808273ffffffffffffffffffffffffffffffffffffffff163373ffffffffffffffffffffffffffffffffffffffff167fddf252ad1be2c89b69c2b068fc378daa952ba7f163c4a11628f55a4df523b3ef60405160405180910390a45050565b6008805490506009600083815260200190815260200160002081905550600881908060018154018082558091505090600182039060005260206000200160009091929091909150555050565b60606000821415611e10576040518060400160405280600181526020017f30000000000000000000000000000000000000000000000000000000000000008152509050611ef0565b600082905060005b60008214611e3a578080600101915050600a8281611e3257fe5b049150611e18565b6060816040519080825280601f01601f191660200182016040528015611e6f5781602001600182028038833980820191505090505b50905060006001830390505b60008614611ee857600a8681611e8d57fe5b0660300160f81b82828060019003935081518110611ea757fe5b60200101907effffffffffffffffffffffffffffffffffffffffffffffffffffffffffffff1916908160001a905350600a8681611ee057fe5b049550611e7b565b819450505050505b919050565b6060611f318383604051806020016040528060008152506040518060200160405280600081525060405180602001604052806000815250612007565b905092915050565b60008060007fc5d2460186f7233c927e7db2dcc703c0e500b653ca82273b7bfad8045d85a47060001b9050833f9150808214158015611f7b57506000801b8214155b92505050919050565b611f9c60018260000154611fbd90919063ffffffff16565b816000018190555050565b6001816000016000828254019250508190555050565b6000611fff83836040518060400160405280601e81526020017f536166654d6174683a207375627472616374696f6e206f766572666c6f7700008152506122c9565b905092915050565b6060808690506060869050606086905060608690506060869050606081518351855187518951010101016040519080825280601f01601f1916602001820160405280156120635781602001600182028038833980820191505090505b509050606081905060008090506000809050600090505b88518110156120e85788818151811061208f57fe5b602001015160f81c60f81b8383806001019450815181106120ac57fe5b60200101907effffffffffffffffffffffffffffffffffffffffffffffffffffffffffffff1916908160001a905350808060010191505061207a565b600090505b875181101561215b5787818151811061210257fe5b602001015160f81c60f81b83838060010194508151811061211f57fe5b60200101907effffffffffffffffffffffffffffffffffffffffffffffffffffffffffffff1916908160001a90535080806001019150506120ed565b600090505b86518110156121ce5786818151811061217557fe5b602001015160f81c60f81b83838060010194508151811061219257fe5b60200101907effffffffffffffffffffffffffffffffffffffffffffffffffffffffffffff1916908160001a9053508080600101915050612160565b600090505b8551811015612241578581815181106121e857fe5b602001015160f81c60f81b83838060010194508151811061220557fe5b60200101907effffffffffffffffffffffffffffffffffffffffffffffffffffffffffffff1916908160001a90535080806001019150506121d3565b600090505b84518110156122b45784818151811061225b57fe5b602001015160f81c60f81b83838060010194508151811061227857fe5b60200101907effffffffffffffffffffffffffffffffffffffffffffffffffffffffffffff1916908160001a9053508080600101915050612246565b82995050505050505050505095945050505050565b6000838311158290612311576040517f08c379a00000000000000000000000000000000000000000000000000000000081526004016123089190613011565b60405180910390fd5b5060008385039050809150509392505050565b828054600181600116156101000203166002900490600052602060002090601f016020900481019282601f1061236557805160ff1916838001178555612393565b82800160010185558215612393579182015b82811115612392578251825591602001919060010190612377565b5b5090506123a091906123d0565b5090565b8154818355818111156123cb578183600052602060002091820191016123ca91906123d0565b5b505050565b6123f291905b808211156123ee5760008160009055506001016123d6565b5090565b90565b6000813590506124048161344b565b92915050565b600082601f83011261241b57600080fd5b600261242e612429826131c7565b61319a565b9150818385604084028201111561244457600080fd5b60005b83811015612474578161245a888261247e565b845260208401935060408301925050600181019050612447565b5050505092915050565b600082601f83011261248f57600080fd5b60026124a261249d826131e9565b61319a565b915081838560208402820111156124b857600080fd5b60005b838110156124e857816124ce8882612662565b8452602084019350602083019250506001810190506124bb565b5050505092915050565b600082601f83011261250357600080fd5b60026125166125118261320b565b61319a565b9150818385602084028201111561252c57600080fd5b60005b8381101561255c57816125428882612662565b84526020840193506020830192505060018101905061252f565b5050505092915050565b60008135905061257581613462565b92915050565b60008135905061258a81613479565b92915050565b60008135905061259f81613490565b92915050565b6000815190506125b481613490565b92915050565b600082601f8301126125cb57600080fd5b81356125de6125d98261322d565b61319a565b915080825260208301602083018583830111156125fa57600080fd5b6126058382846133f8565b50505092915050565b600082601f83011261261f57600080fd5b813561263261262d82613259565b61319a565b9150808252602083016020830185838301111561264e57600080fd5b6126598382846133f8565b50505092915050565b600081359050612671816134a7565b92915050565b60006020828403121561268957600080fd5b6000612697848285016123f5565b91505092915050565b600080604083850312156126b357600080fd5b60006126c1858286016123f5565b92505060206126d2858286016123f5565b9150509250929050565b6000806000606084860312156126f157600080fd5b60006126ff868287016123f5565b9350506020612710868287016123f5565b925050604061272186828701612662565b9150509250925092565b6000806000806080858703121561274157600080fd5b600061274f878288016123f5565b9450506020612760878288016123f5565b935050604061277187828801612662565b925050606085013567ffffffffffffffff81111561278e57600080fd5b61279a878288016125ba565b91505092959194509250565b600080604083850312156127b957600080fd5b60006127c7858286016123f5565b92505060206127d885828601612566565b9150509250929050565b600080604083850312156127f557600080fd5b6000612803858286016123f5565b925050602061281485828601612662565b9150509250929050565b600080600080600080610180878903121561283857600080fd5b600061284689828a016123f5565b965050602061285789828a01612662565b955050604061286889828a016124f2565b945050608061287989828a0161240a565b93505061010061288b89828a016124f2565b92505061014061289d89828a016124f2565b9150509295509295509295565b6000602082840312156128bc57600080fd5b60006128ca84828501612566565b91505092915050565b6000806000606084860312156128e857600080fd5b60006128f68682870161257b565b9350506020612907868287016123f5565b925050604061291886828701612662565b9150509250925092565b6000806040838503121561293557600080fd5b60006129438582860161257b565b925050602083013567ffffffffffffffff81111561296057600080fd5b61296c8582860161260e565b9150509250929050565b60008060006060848603121561298b57600080fd5b60006129998682870161257b565b935050602084013567ffffffffffffffff8111156129b657600080fd5b6129c28682870161260e565b925050604084013567ffffffffffffffff8111156129df57600080fd5b6129eb868287016125ba565b9150509250925092565b600060208284031215612a0757600080fd5b6000612a1584828501612590565b91505092915050565b600060208284031215612a3057600080fd5b6000612a3e848285016125a5565b91505092915050565b600060208284031215612a5957600080fd5b6000612a6784828501612662565b91505092915050565b6000612a7c8383612b6c565b60408301905092915050565b6000612a948383612ec5565b60208301905092915050565b612aa9816133c2565b82525050565b612ab881613344565b82525050565b612ac7816132a3565b612ad18184613301565b9250612adc82613285565b8060005b83811015612b0d578151612af48782612a70565b9650612aff836132da565b925050600181019050612ae0565b505050505050565b612b1e816132b9565b612b288184613317565b9250612b3382613299565b8060005b83811015612b64578151612b4b8782612a88565b9650612b56836132f4565b925050600181019050612b37565b505050505050565b612b75816132ae565b612b7f818461330c565b9250612b8a8261328f565b8060005b83811015612bbb578151612ba28782612a88565b9650612bad836132e7565b925050600181019050612b8e565b505050505050565b612bcc81613356565b82525050565b6000612bdd826132c4565b612be78185613322565b9350612bf7818560208601613407565b612c008161343a565b840191505092915050565b6000612c16826132cf565b612c208185613333565b9350612c30818560208601613407565b612c398161343a565b840191505092915050565b6000612c51601d83613333565b91507f5468697320736f6c7574696f6e20616c7265616479206578697374732e0000006000830152602082019050919050565b6000612c91601483613333565b91507f41646472657373206973206e6f742076616c69640000000000000000000000006000830152602082019050919050565b6000612cd1602b83613333565b91507f7472616e7366657272696e672061646472657373206973206e6f74206120766160008301527f6c696420616464726573730000000000000000000000000000000000000000006020830152604082019050919050565b6000612d37602183613333565b91507f6f6e6c79206f776e65722063616e207472616e73666572206f776e657273686960008301527f70000000000000000000000000000000000000000000000000000000000000006020830152604082019050919050565b6000612d9d601c83613333565b91507f43616c6c6572206973206e6f7420636f6e7472616374206f776e6572000000006000830152602082019050919050565b6000612ddd602983613333565b91507f417070726f7665722063616e6e6f7420626520746865206f776e6572206f662060008301527f74686520746f6b656e00000000000000000000000000000000000000000000006020830152604082019050919050565b6000612e43601683613333565b91507f746f6b656e496420616c726561647920657869737473000000000000000000006000830152602082019050919050565b6000612e83601483613333565b91507f746f6b656e20646f6573206e6f742065786973740000000000000000000000006000830152602082019050919050565b612ebf816133b8565b82525050565b612ece816133b8565b82525050565b6000612ee08287612b15565b604082019150612ef08286612abe565b608082019150612f008285612b15565b604082019150612f108284612b15565b60408201915081905095945050505050565b6000602082019050612f376000830184612aaf565b92915050565b6000602082019050612f526000830184612aa0565b92915050565b6000608082019050612f6d6000830187612aa0565b612f7a6020830186612aaf565b612f876040830185612eb6565b8181036060830152612f998184612bd2565b905095945050505050565b6000604082019050612fb96000830185612aaf565b612fc66020830184612aaf565b9392505050565b6000604082019050612fe26000830185612aaf565b612fef6020830184612eb6565b9392505050565b600060208201905061300b6000830184612bc3565b92915050565b6000602082019050818103600083015261302b8184612c0b565b905092915050565b6000606082019050818103600083015261304d8186612c0b565b905081810360208301526130618185612c0b565b905081810360408301526130758184612c0b565b9050949350505050565b6000602082019050818103600083015261309881612c44565b9050919050565b600060208201905081810360008301526130b881612c84565b9050919050565b600060208201905081810360008301526130d881612cc4565b9050919050565b600060208201905081810360008301526130f881612d2a565b9050919050565b6000602082019050818103600083015261311881612d90565b9050919050565b6000602082019050818103600083015261313881612dd0565b9050919050565b6000602082019050818103600083015261315881612e36565b9050919050565b6000602082019050818103600083015261317881612e76565b9050919050565b60006020820190506131946000830184612eb6565b92915050565b6000604051905081810181811067ffffffffffffffff821117156131bd57600080fd5b8060405250919050565b600067ffffffffffffffff8211156131de57600080fd5b602082029050919050565b600067ffffffffffffffff82111561320057600080fd5b602082029050919050565b600067ffffffffffffffff82111561322257600080fd5b602082029050919050565b600067ffffffffffffffff82111561324457600080fd5b601f19601f8301169050602081019050919050565b600067ffffffffffffffff82111561327057600080fd5b601f19601f8301169050602081019050919050565b6000819050919050565b6000819050919050565b6000819050919050565b600060029050919050565b600060029050919050565b600060029050919050565b600081519050919050565b600081519050919050565b6000602082019050919050565b6000602082019050919050565b6000602082019050919050565b600081905092915050565b600081905092915050565b600081905092915050565b600082825260208201905092915050565b600082825260208201905092915050565b600061334f82613398565b9050919050565b60008115159050919050565b6000819050919050565b60007fffffffff0000000000000000000000000000000000000000000000000000000082169050919050565b600073ffffffffffffffffffffffffffffffffffffffff82169050919050565b6000819050919050565b60006133cd826133d4565b9050919050565b60006133df826133e6565b9050919050565b60006133f182613398565b9050919050565b82818337600083830152505050565b60005b8381101561342557808201518184015260208101905061340a565b83811115613434576000848401525b50505050565b6000601f19601f8301169050919050565b61345481613344565b811461345f57600080fd5b50565b61346b81613356565b811461347657600080fd5b50565b61348281613362565b811461348d57600080fd5b50565b6134998161336c565b81146134a457600080fd5b50565b6134b0816133b8565b81146134bb57600080fd5b5056fea365627a7a72315820b1f64240cc6b0f7382f872b7cb9c21de376882801cd16161aa8c048e60aaf66f6c6578706572696d656e74616cf564736f6c6343000511004068747470733a2f2f73332d75732d776573742d322e616d617a6f6e6177732e636f6d2f756461636974792d626c6f636b636861696e2f63617073746f6e652f",
  "source": "pragma experimental ABIEncoderV2;\r\npragma solidity >=0.4.21 <0.6.0;\r\n\r\nimport \"./ERC721Mintable.sol\";\r\nimport \"./verifier.sol\";\r\n\r\n// TODO define a contract call to the zokrates generated solidity contract <Verifier> or <renamedVerifier>\r\ncontract SquareVerifier is Verifier {}\r\n\r\n// TODO define another contract named SolnSquareVerifier that inherits from your ERC721Mintable class\r\ncontract SolnSquareVerifier is CustomERC721Token {\r\n\r\n// TODO define a solutions struct that can hold an index & an address\r\n    struct Solution {\r\n        uint256 index;\r\n        address _address;\r\n    }\r\n\r\n// TODO define an array of the above struct\r\n    Solution[] solutionArray;\r\n\r\n// TODO define a mapping to store unique solutions submitted\r\n    mapping(bytes32 => Solution) private solutionMap;\r\n\r\n// TODO Create an event to emit when a solution is added\r\n    event newSolution(address _address, uint256 _index);\r\n\r\n// TODO Create a function to add the solutions to the array and emit the event\r\n    function solutionCreated(bytes32 solutionHash, address _address, uint256 _index) public\r\n        {\r\n            // Add solution elements to mapping of solutions with solver(solution) as key\r\n            solutionMap[solutionHash]._address = _address;\r\n            solutionMap[solutionHash].index = _index;\r\n            // Push solution to array\r\n            solutionArray.push(solutionMap[solutionHash]);\r\n            // Emit new solution event\r\n            emit newSolution(_address, _index);\r\n        }\r\n\r\n// TODO Create a function to mint new NFT only after the solution has been verified\r\n    function mintNewNFT(\r\n        address _address, \r\n        uint256 tokenId,\r\n        uint[2] memory a,\r\n        uint[2][2] memory b,\r\n        uint[2] memory c,\r\n        uint[2] memory d\r\n        ) \r\n        public \r\n        {\r\n            // Generate hash from solution data to use as key in solutionMap\r\n            bytes32 solutionHash = keccak256(abi.encodePacked(a, b, c, d));\r\n            //  - make sure the solution is unique (has not been used before)\r\n            require(solutionMap[solutionHash]._address == address(0), \"This solution already exists.\");\r\n            //  - make sure you handle metadata as well as tokenSuplly\r\n            solutionCreated(solutionHash, _address, tokenId);\r\n            super.mint(_address, tokenId);\r\n        }\r\n}",
  "sourcePath": "C:/Users/48his/Documents/TP/Blockchain/Blockchain-Capstone/eth-contracts/contracts/SolnSquareVerifier.sol",
  "compiler": {
    "name": "solc",
    "version": "0.5.17+commit.d19bba13.Emscripten.clang"
  },
  "schemaVersion": "3.0.1",
  "updatedAt": "2022-09-27T09:53:24.335Z",
  "devdoc": {
    "methods": {
      "getOwner()": {
        "details": "Return the contract owner"
      },
      "isApprovedForAll(address,address)": {
        "details": "Tells whether an operator is approved by a given owner",
        "params": {
          "operator": "operator address which you want to query the approval of",
          "owner": "owner address which you want to query the approval of"
        },
        "return": "bool whether the given operator is approved by the given owner"
      },
      "setApprovalForAll(address,bool)": {
        "details": "Sets or unsets the approval of a given operator An operator is allowed to transfer all tokens of the sender on their behalf",
        "params": {
          "approved": "representing the status of the approval to be set",
          "to": "operator address to set the approval"
        }
      },
      "setPaused(bool)": {
        "details": "public setter using the inherited onlyOwner modifier "
      },
      "supportsInterface(bytes4)": {
        "details": "implement supportsInterface(bytes4) using a lookup table"
      },
      "tokenByIndex(uint256)": {
        "details": "Gets the token ID at a given index of all the tokens in this contract Reverts if the index is greater or equal to the total number of tokens",
        "params": {
          "index": "uint256 representing the index to be accessed of the tokens list"
        },
        "return": "uint256 token ID at the given index of the tokens list"
      },
      "tokenOfOwnerByIndex(address,uint256)": {
        "details": "Gets the token ID at a given index of the tokens list of the requested owner",
        "params": {
          "index": "uint256 representing the index to be accessed of the requested tokens list",
          "owner": "address owning the tokens list to be accessed"
        },
        "return": "uint256 token ID at the given index of the tokens list owned by the requested address"
      },
      "totalSupply()": {
        "details": "Gets the total amount of tokens stored by the contract",
        "return": "uint256 representing the total amount of tokens"
      },
      "transferOwnership(address)": {
        "details": "Transfer Ownership of a contract"
      }
    }
  },
  "userdoc": {
    "methods": {}
  }
}