{
  "contractName": "SolnSquareVerifier",
  "abi": [
    {
      "anonymous": false,
      "inputs": [
        {
          "indexed": true,
          "internalType": "address",
          "name": "owner",
          "type": "address"
        },
        {
          "indexed": true,
          "internalType": "address",
          "name": "approved",
          "type": "address"
        },
        {
          "indexed": true,
          "internalType": "uint256",
          "name": "tokenId",
          "type": "uint256"
        }
      ],
      "name": "Approval",
      "type": "event",
      "signature": "0x8c5be1e5ebec7d5bd14f71427d1e84f3dd0314c0f7b2291e5b200ac8c7c3b925"
    },
    {
      "anonymous": false,
      "inputs": [
        {
          "indexed": true,
          "internalType": "address",
          "name": "owner",
          "type": "address"
        },
        {
          "indexed": true,
          "internalType": "address",
          "name": "operator",
          "type": "address"
        },
        {
          "indexed": false,
          "internalType": "bool",
          "name": "approved",
          "type": "bool"
        }
      ],
      "name": "ApprovalForAll",
      "type": "event",
      "signature": "0x17307eab39ab6107e8899845ad3d59bd9653f200f220920489ca2b5937696c31"
    },
    {
      "anonymous": false,
      "inputs": [
        {
          "indexed": false,
          "internalType": "address",
          "name": "sender",
          "type": "address"
        }
      ],
      "name": "Paused",
      "type": "event",
      "signature": "0x62e78cea01bee320cd4e420270b5ea74000d11b0c9f74754ebdbfc544b05a258"
    },
    {
      "anonymous": false,
      "inputs": [
        {
          "indexed": true,
          "internalType": "address",
          "name": "from",
          "type": "address"
        },
        {
          "indexed": true,
          "internalType": "address",
          "name": "to",
          "type": "address"
        },
        {
          "indexed": true,
          "internalType": "uint256",
          "name": "tokenId",
          "type": "uint256"
        }
      ],
      "name": "Transfer",
      "type": "event",
      "signature": "0xddf252ad1be2c89b69c2b068fc378daa952ba7f163c4a11628f55a4df523b3ef"
    },
    {
      "anonymous": false,
      "inputs": [
        {
          "indexed": false,
          "internalType": "address",
          "name": "_address",
          "type": "address"
        },
        {
          "indexed": false,
          "internalType": "uint256",
          "name": "_tokenId",
          "type": "uint256"
        },
        {
          "indexed": false,
          "internalType": "bytes32",
          "name": "_key",
          "type": "bytes32"
        }
      ],
      "name": "newSolutionAdded",
      "type": "event",
      "signature": "0xbf9d55c5248e1b239e13260bd67d4050013e10ce016503491ee4e7114425e9fc"
    },
    {
      "anonymous": false,
      "inputs": [
        {
          "indexed": false,
          "internalType": "address",
          "name": "sender",
          "type": "address"
        }
      ],
      "name": "notInPaused",
      "type": "event",
      "signature": "0x65a98092c461561c4059afd90c26158ce0dfa12d2225b1bcaf0691ee366b138a"
    },
    {
      "anonymous": false,
      "inputs": [
        {
          "indexed": false,
          "internalType": "address",
          "name": "previousOwner",
          "type": "address"
        },
        {
          "indexed": false,
          "internalType": "address",
          "name": "newOwner",
          "type": "address"
        }
      ],
      "name": "transferOwnerShip",
      "type": "event",
      "signature": "0x5b94a5f1a151b859c1d5794b3740dff40527ffc8d12281797c100d36bcfd1321"
    },
    {
      "constant": false,
      "inputs": [
        {
          "internalType": "bytes32",
          "name": "_myid",
          "type": "bytes32"
        },
        {
          "internalType": "string",
          "name": "_result",
          "type": "string"
        }
      ],
      "name": "__callback",
      "outputs": [],
      "payable": false,
      "stateMutability": "nonpayable",
      "type": "function",
      "signature": "0x27dc297e"
    },
    {
      "constant": false,
      "inputs": [
        {
          "internalType": "bytes32",
          "name": "_myid",
          "type": "bytes32"
        },
        {
          "internalType": "string",
          "name": "_result",
          "type": "string"
        },
        {
          "internalType": "bytes",
          "name": "_proof",
          "type": "bytes"
        }
      ],
      "name": "__callback",
      "outputs": [],
      "payable": false,
      "stateMutability": "nonpayable",
      "type": "function",
      "signature": "0x38bbfa50"
    },
    {
      "constant": false,
      "inputs": [
        {
          "internalType": "address",
          "name": "to",
          "type": "address"
        },
        {
          "internalType": "uint256",
          "name": "tokenId",
          "type": "uint256"
        }
      ],
      "name": "approve",
      "outputs": [],
      "payable": false,
      "stateMutability": "nonpayable",
      "type": "function",
      "signature": "0x095ea7b3"
    },
    {
      "constant": true,
      "inputs": [
        {
          "internalType": "address",
          "name": "owner",
          "type": "address"
        }
      ],
      "name": "balanceOf",
      "outputs": [
        {
          "internalType": "uint256",
          "name": "",
          "type": "uint256"
        }
      ],
      "payable": false,
      "stateMutability": "view",
      "type": "function",
      "signature": "0x70a08231"
    },
    {
      "constant": true,
      "inputs": [
        {
          "internalType": "uint256",
          "name": "tokenId",
          "type": "uint256"
        }
      ],
      "name": "getApproved",
      "outputs": [
        {
          "internalType": "address",
          "name": "",
          "type": "address"
        }
      ],
      "payable": false,
      "stateMutability": "view",
      "type": "function",
      "signature": "0x081812fc"
    },
    {
      "constant": true,
      "inputs": [],
      "name": "getOwner",
      "outputs": [
        {
          "internalType": "address",
          "name": "",
          "type": "address"
        }
      ],
      "payable": false,
      "stateMutability": "view",
      "type": "function",
      "signature": "0x893d20e8"
    },
    {
      "constant": true,
      "inputs": [],
      "name": "getter",
      "outputs": [
        {
          "internalType": "string",
          "name": "",
          "type": "string"
        },
        {
          "internalType": "string",
          "name": "",
          "type": "string"
        },
        {
          "internalType": "string",
          "name": "",
          "type": "string"
        }
      ],
      "payable": false,
      "stateMutability": "view",
      "type": "function",
      "signature": "0x993a04b7"
    },
    {
      "constant": true,
      "inputs": [
        {
          "internalType": "address",
          "name": "owner",
          "type": "address"
        },
        {
          "internalType": "address",
          "name": "operator",
          "type": "address"
        }
      ],
      "name": "isApprovedForAll",
      "outputs": [
        {
          "internalType": "bool",
          "name": "",
          "type": "bool"
        }
      ],
      "payable": false,
      "stateMutability": "view",
      "type": "function",
      "signature": "0xe985e9c5"
    },
    {
      "constant": false,
      "inputs": [
        {
          "internalType": "address",
          "name": "to",
          "type": "address"
        },
        {
          "internalType": "uint256",
          "name": "tokenId",
          "type": "uint256"
        }
      ],
      "name": "mint",
      "outputs": [
        {
          "internalType": "bool",
          "name": "",
          "type": "bool"
        }
      ],
      "payable": false,
      "stateMutability": "nonpayable",
      "type": "function",
      "signature": "0x40c10f19"
    },
    {
      "constant": true,
      "inputs": [
        {
          "internalType": "uint256",
          "name": "tokenId",
          "type": "uint256"
        }
      ],
      "name": "ownerOf",
      "outputs": [
        {
          "internalType": "address",
          "name": "",
          "type": "address"
        }
      ],
      "payable": false,
      "stateMutability": "view",
      "type": "function",
      "signature": "0x6352211e"
    },
    {
      "constant": false,
      "inputs": [
        {
          "internalType": "address",
          "name": "from",
          "type": "address"
        },
        {
          "internalType": "address",
          "name": "to",
          "type": "address"
        },
        {
          "internalType": "uint256",
          "name": "tokenId",
          "type": "uint256"
        }
      ],
      "name": "safeTransferFrom",
      "outputs": [],
      "payable": false,
      "stateMutability": "nonpayable",
      "type": "function",
      "signature": "0x42842e0e"
    },
    {
      "constant": false,
      "inputs": [
        {
          "internalType": "address",
          "name": "from",
          "type": "address"
        },
        {
          "internalType": "address",
          "name": "to",
          "type": "address"
        },
        {
          "internalType": "uint256",
          "name": "tokenId",
          "type": "uint256"
        },
        {
          "internalType": "bytes",
          "name": "_data",
          "type": "bytes"
        }
      ],
      "name": "safeTransferFrom",
      "outputs": [],
      "payable": false,
      "stateMutability": "nonpayable",
      "type": "function",
      "signature": "0xb88d4fde"
    },
    {
      "constant": false,
      "inputs": [
        {
          "internalType": "address",
          "name": "to",
          "type": "address"
        },
        {
          "internalType": "bool",
          "name": "approved",
          "type": "bool"
        }
      ],
      "name": "setApprovalForAll",
      "outputs": [],
      "payable": false,
      "stateMutability": "nonpayable",
      "type": "function",
      "signature": "0xa22cb465"
    },
    {
      "constant": false,
      "inputs": [
        {
          "internalType": "bool",
          "name": "status",
          "type": "bool"
        }
      ],
      "name": "setPaused",
      "outputs": [],
      "payable": false,
      "stateMutability": "nonpayable",
      "type": "function",
      "signature": "0x16c38b3c"
    },
    {
      "constant": true,
      "inputs": [
        {
          "internalType": "bytes4",
          "name": "interfaceId",
          "type": "bytes4"
        }
      ],
      "name": "supportsInterface",
      "outputs": [
        {
          "internalType": "bool",
          "name": "",
          "type": "bool"
        }
      ],
      "payable": false,
      "stateMutability": "view",
      "type": "function",
      "signature": "0x01ffc9a7"
    },
    {
      "constant": true,
      "inputs": [
        {
          "internalType": "uint256",
          "name": "index",
          "type": "uint256"
        }
      ],
      "name": "tokenByIndex",
      "outputs": [
        {
          "internalType": "uint256",
          "name": "",
          "type": "uint256"
        }
      ],
      "payable": false,
      "stateMutability": "view",
      "type": "function",
      "signature": "0x4f6ccce7"
    },
    {
      "constant": true,
      "inputs": [
        {
          "internalType": "address",
          "name": "owner",
          "type": "address"
        },
        {
          "internalType": "uint256",
          "name": "index",
          "type": "uint256"
        }
      ],
      "name": "tokenOfOwnerByIndex",
      "outputs": [
        {
          "internalType": "uint256",
          "name": "",
          "type": "uint256"
        }
      ],
      "payable": false,
      "stateMutability": "view",
      "type": "function",
      "signature": "0x2f745c59"
    },
    {
      "constant": true,
      "inputs": [
        {
          "internalType": "uint256",
          "name": "tokenId",
          "type": "uint256"
        }
      ],
      "name": "tokenURI",
      "outputs": [
        {
          "internalType": "string",
          "name": "",
          "type": "string"
        }
      ],
      "payable": false,
      "stateMutability": "view",
      "type": "function",
      "signature": "0xc87b56dd"
    },
    {
      "constant": true,
      "inputs": [],
      "name": "totalSupply",
      "outputs": [
        {
          "internalType": "uint256",
          "name": "",
          "type": "uint256"
        }
      ],
      "payable": false,
      "stateMutability": "view",
      "type": "function",
      "signature": "0x18160ddd"
    },
    {
      "constant": false,
      "inputs": [
        {
          "internalType": "address",
          "name": "from",
          "type": "address"
        },
        {
          "internalType": "address",
          "name": "to",
          "type": "address"
        },
        {
          "internalType": "uint256",
          "name": "tokenId",
          "type": "uint256"
        }
      ],
      "name": "transferFrom",
      "outputs": [],
      "payable": false,
      "stateMutability": "nonpayable",
      "type": "function",
      "signature": "0x23b872dd"
    },
    {
      "constant": false,
      "inputs": [
        {
          "internalType": "address",
          "name": "newOwner",
          "type": "address"
        }
      ],
      "name": "transferOwnership",
      "outputs": [],
      "payable": false,
      "stateMutability": "nonpayable",
      "type": "function",
      "signature": "0xf2fde38b"
    },
    {
      "constant": true,
      "inputs": [
        {
          "components": [
            {
              "components": [
                {
                  "internalType": "uint256",
                  "name": "X",
                  "type": "uint256"
                },
                {
                  "internalType": "uint256",
                  "name": "Y",
                  "type": "uint256"
                }
              ],
              "internalType": "struct Pairing.G1Point",
              "name": "a",
              "type": "tuple"
            },
            {
              "components": [
                {
                  "internalType": "uint256[2]",
                  "name": "X",
                  "type": "uint256[2]"
                },
                {
                  "internalType": "uint256[2]",
                  "name": "Y",
                  "type": "uint256[2]"
                }
              ],
              "internalType": "struct Pairing.G2Point",
              "name": "b",
              "type": "tuple"
            },
            {
              "components": [
                {
                  "internalType": "uint256",
                  "name": "X",
                  "type": "uint256"
                },
                {
                  "internalType": "uint256",
                  "name": "Y",
                  "type": "uint256"
                }
              ],
              "internalType": "struct Pairing.G1Point",
              "name": "c",
              "type": "tuple"
            }
          ],
          "internalType": "struct Verifier.Proof",
          "name": "proof",
          "type": "tuple"
        },
        {
          "internalType": "uint256[1]",
          "name": "input",
          "type": "uint256[1]"
        }
      ],
      "name": "verifyTx",
      "outputs": [
        {
          "internalType": "bool",
          "name": "r",
          "type": "bool"
        }
      ],
      "payable": false,
      "stateMutability": "view",
      "type": "function",
      "signature": "0xf48d7729"
    },
    {
      "constant": false,
      "inputs": [
        {
          "internalType": "address",
          "name": "sender",
          "type": "address"
        },
        {
          "internalType": "uint256",
          "name": "tokenId",
          "type": "uint256"
        },
        {
          "components": [
            {
              "components": [
                {
                  "internalType": "uint256",
                  "name": "X",
                  "type": "uint256"
                },
                {
                  "internalType": "uint256",
                  "name": "Y",
                  "type": "uint256"
                }
              ],
              "internalType": "struct Pairing.G1Point",
              "name": "a",
              "type": "tuple"
            },
            {
              "components": [
                {
                  "internalType": "uint256[2]",
                  "name": "X",
                  "type": "uint256[2]"
                },
                {
                  "internalType": "uint256[2]",
                  "name": "Y",
                  "type": "uint256[2]"
                }
              ],
              "internalType": "struct Pairing.G2Point",
              "name": "b",
              "type": "tuple"
            },
            {
              "components": [
                {
                  "internalType": "uint256",
                  "name": "X",
                  "type": "uint256"
                },
                {
                  "internalType": "uint256",
                  "name": "Y",
                  "type": "uint256"
                }
              ],
              "internalType": "struct Pairing.G1Point",
              "name": "c",
              "type": "tuple"
            }
          ],
          "internalType": "struct Verifier.Proof",
          "name": "proof",
          "type": "tuple"
        },
        {
          "internalType": "uint256[2]",
          "name": "a",
          "type": "uint256[2]"
        },
        {
          "internalType": "uint256[2][2]",
          "name": "b",
          "type": "uint256[2][2]"
        },
        {
          "internalType": "uint256[2]",
          "name": "c",
          "type": "uint256[2]"
        },
        {
          "internalType": "uint256[1]",
          "name": "input",
          "type": "uint256[1]"
        }
      ],
      "name": "addSolution",
      "outputs": [],
      "payable": false,
      "stateMutability": "nonpayable",
      "type": "function",
      "signature": "0x1bd29251"
    },
    {
      "constant": false,
      "inputs": [
        {
          "internalType": "address",
          "name": "to",
          "type": "address"
        },
        {
          "internalType": "uint256",
          "name": "tokenId",
          "type": "uint256"
        },
        {
          "components": [
            {
              "components": [
                {
                  "internalType": "uint256",
                  "name": "X",
                  "type": "uint256"
                },
                {
                  "internalType": "uint256",
                  "name": "Y",
                  "type": "uint256"
                }
              ],
              "internalType": "struct Pairing.G1Point",
              "name": "a",
              "type": "tuple"
            },
            {
              "components": [
                {
                  "internalType": "uint256[2]",
                  "name": "X",
                  "type": "uint256[2]"
                },
                {
                  "internalType": "uint256[2]",
                  "name": "Y",
                  "type": "uint256[2]"
                }
              ],
              "internalType": "struct Pairing.G2Point",
              "name": "b",
              "type": "tuple"
            },
            {
              "components": [
                {
                  "internalType": "uint256",
                  "name": "X",
                  "type": "uint256"
                },
                {
                  "internalType": "uint256",
                  "name": "Y",
                  "type": "uint256"
                }
              ],
              "internalType": "struct Pairing.G1Point",
              "name": "c",
              "type": "tuple"
            }
          ],
          "internalType": "struct Verifier.Proof",
          "name": "proof",
          "type": "tuple"
        },
        {
          "internalType": "uint256[2]",
          "name": "a",
          "type": "uint256[2]"
        },
        {
          "internalType": "uint256[2][2]",
          "name": "b",
          "type": "uint256[2][2]"
        },
        {
          "internalType": "uint256[2]",
          "name": "c",
          "type": "uint256[2]"
        },
        {
          "internalType": "uint256[1]",
          "name": "input",
          "type": "uint256[1]"
        }
      ],
      "name": "mintNewNFT",
      "outputs": [],
      "payable": false,
      "stateMutability": "nonpayable",
      "type": "function",
      "signature": "0x8173cca2"
    }
  ],
  "bytecode": "0x60806040526040518060400160405280600f81526020017f5265616c457374617465546f6b656e00000000000000000000000000000000008152506040518060400160405280600381526020017f52455400000000000000000000000000000000000000000000000000000000008152506040518060600160405280603f815260200162004ad3603f9139336000806101000a81548173ffffffffffffffffffffffffffffffffffffffff021916908373ffffffffffffffffffffffffffffffffffffffff160217905550620000dc60006200019060201b60201c565b620000f46301ffc9a760e01b620002ce60201b60201c565b6200010c6380ac58cd60e01b620002ce60201b60201c565b6200012463780e9d6360e01b620002ce60201b60201c565b82600f90805190602001906200013c9291906200036e565b508160109080519060200190620001559291906200036e565b5080601190805190602001906200016e9291906200036e565b5062000187635b5e139f60e01b620002ce60201b60201c565b5050506200051c565b6000809054906101000a900473ffffffffffffffffffffffffffffffffffffffff1673ffffffffffffffffffffffffffffffffffffffff163373ffffffffffffffffffffffffffffffffffffffff161462000222576040517f08c379a000000000000000000000000000000000000000000000000000000000815260040162000219906200048d565b60405180910390fd5b80600060146101000a81548160ff021916908315150217905550600060149054906101000a900460ff161562000291577f62e78cea01bee320cd4e420270b5ea74000d11b0c9f74754ebdbfc544b05a2583360405162000283919062000470565b60405180910390a1620002cb565b7f65a98092c461561c4059afd90c26158ce0dfa12d2225b1bcaf0691ee366b138a33604051620002c2919062000470565b60405180910390a15b50565b63ffffffff60e01b817bffffffffffffffffffffffffffffffffffffffffffffffffffffffff191614156200030257600080fd5b6001806000837bffffffffffffffffffffffffffffffffffffffffffffffffffffffff19167bffffffffffffffffffffffffffffffffffffffffffffffffffffffff1916815260200190815260200160002060006101000a81548160ff02191690831515021790555050565b828054600181600116156101000203166002900490600052602060002090601f016020900481019282601f10620003b157805160ff1916838001178555620003e2565b82800160010185558215620003e2579182015b82811115620003e1578251825591602001919060010190620003c4565b5b509050620003f19190620003f5565b5090565b6200041a91905b8082111562000416576000816000905550600101620003fc565b5090565b90565b6200042881620004e0565b82525050565b60006200043d601c83620004af565b91507f43616c6c6572206973206e6f7420636f6e7472616374206f776e6572000000006000830152602082019050919050565b60006020820190506200048760008301846200041d565b92915050565b60006020820190508181036000830152620004a8816200042e565b9050919050565b600082825260208201905092915050565b600073ffffffffffffffffffffffffffffffffffffffff82169050919050565b6000620004ed82620004f4565b9050919050565b6000620005018262000508565b9050919050565b60006200051582620004c0565b9050919050565b6145a7806200052c6000396000f3fe608060405234801561001057600080fd5b50600436106101585760003560e01c80634f6ccce7116100c3578063a22cb4651161007c578063a22cb465146103e9578063b88d4fde14610405578063c87b56dd14610421578063e985e9c514610451578063f2fde38b14610481578063f48d77291461049d57610158565b80634f6ccce7146102ff5780636352211e1461032f57806370a082311461035f5780638173cca21461038f578063893d20e8146103ab578063993a04b7146103c957610158565b806323b872dd1161011557806323b872dd1461022f57806327dc297e1461024b5780632f745c591461026757806338bbfa501461029757806340c10f19146102b357806342842e0e146102e357610158565b806301ffc9a71461015d578063081812fc1461018d578063095ea7b3146101bd57806316c38b3c146101d957806318160ddd146101f55780631bd2925114610213575b600080fd5b6101776004803603610172919081019061393a565b6104cd565b604051610184919061402d565b60405180910390f35b6101a760048036036101a291908101906139ca565b610535565b6040516101b49190613f4b565b60405180910390f35b6101d760048036036101d2919081019061375f565b610572565b005b6101f360048036036101ee919081019061383e565b61077b565b005b6101fd6108b0565b60405161020a91906141d6565b60405180910390f35b61022d6004803603610228919081019061379b565b6108bd565b005b61024960048036036102449190810190613659565b610b6e565b005b61026560048036036102609190810190613867565b610b91565b005b610281600480360361027c919081019061375f565b610bd4565b60405161028e91906141d6565b60405180910390f35b6102b160048036036102ac91908101906138bb565b610c47565b005b6102cd60048036036102c8919081019061375f565b610c4c565b6040516102da919061402d565b60405180910390f35b6102fd60048036036102f89190810190613659565b610cfa565b005b610319600480360361031491908101906139ca565b610d1a565b60405161032691906141d6565b60405180910390f35b610349600480360361034491908101906139ca565b610d4e565b6040516103569190613f4b565b60405180910390f35b610379600480360361037491908101906135f4565b610d8b565b60405161038691906141d6565b60405180910390f35b6103a960048036036103a4919081019061379b565b610ddb565b005b6103b3610e62565b6040516103c09190613f4b565b60405180910390f35b6103d1610e8b565b6040516103e09392919061406a565b60405180910390f35b61040360048036036103fe9190810190613723565b611075565b005b61041f600480360361041a91908101906136a8565b6111ab565b005b61043b600480360361043691908101906139ca565b6111d1565b6040516104489190614048565b60405180910390f35b61046b6004803603610466919081019061361d565b611298565b604051610478919061402d565b60405180910390f35b61049b600480360361049691908101906135f4565b61132c565b005b6104b760048036036104b2919081019061398c565b6114d0565b6040516104c4919061402d565b60405180910390f35b600060016000837bffffffffffffffffffffffffffffffffffffffffffffffffffffffff19167bffffffffffffffffffffffffffffffffffffffffffffffffffffffff1916815260200190815260200160002060009054906101000a900460ff169050919050565b60006003600083815260200190815260200160002060009054906101000a900473ffffffffffffffffffffffffffffffffffffffff169050919050565b6002600082815260200190815260200160002060009054906101000a900473ffffffffffffffffffffffffffffffffffffffff1673ffffffffffffffffffffffffffffffffffffffff168273ffffffffffffffffffffffffffffffffffffffff161415610614576040517f08c379a000000000000000000000000000000000000000000000000000000000815260040161060b90614176565b60405180910390fd5b61061c610e62565b73ffffffffffffffffffffffffffffffffffffffff163373ffffffffffffffffffffffffffffffffffffffff16148061068e575061068d6002600083815260200190815260200160002060009054906101000a900473ffffffffffffffffffffffffffffffffffffffff1633611298565b5b61069757600080fd5b816003600083815260200190815260200160002060006101000a81548173ffffffffffffffffffffffffffffffffffffffff021916908373ffffffffffffffffffffffffffffffffffffffff160217905550808273ffffffffffffffffffffffffffffffffffffffff166002600084815260200190815260200160002060009054906101000a900473ffffffffffffffffffffffffffffffffffffffff1673ffffffffffffffffffffffffffffffffffffffff167f8c5be1e5ebec7d5bd14f71427d1e84f3dd0314c0f7b2291e5b200ac8c7c3b92560405160405180910390a45050565b6000809054906101000a900473ffffffffffffffffffffffffffffffffffffffff1673ffffffffffffffffffffffffffffffffffffffff163373ffffffffffffffffffffffffffffffffffffffff161461080a576040517f08c379a000000000000000000000000000000000000000000000000000000000815260040161080190614156565b60405180910390fd5b80600060146101000a81548160ff021916908315150217905550600060149054906101000a900460ff1615610875577f62e78cea01bee320cd4e420270b5ea74000d11b0c9f74754ebdbfc544b05a258336040516108689190613f66565b60405180910390a16108ad565b7f65a98092c461561c4059afd90c26158ce0dfa12d2225b1bcaf0691ee366b138a336040516108a49190613f66565b60405180910390a15b50565b6000600880549050905090565b6108c785826114d0565b610906576040517f08c379a00000000000000000000000000000000000000000000000000000000081526004016108fd906140d6565b60405180910390fd5b60008484848460405160200161091f9493929190613efd565b6040516020818303038152906040528051906020012090506014600088815260200190815260200160002060020160149054906101000a900460ff161561099b576040517f08c379a000000000000000000000000000000000000000000000000000000000815260040161099290614136565b60405180910390fd5b600060138054905090506109ad612fc8565b60405180608001604052808381526020018481526020018b73ffffffffffffffffffffffffffffffffffffffff16815260200160011515815250905060138190806001815401808255809150509060018203906000526020600020906003020160009091929091909150600082015181600001556020820151816001015560408201518160020160006101000a81548173ffffffffffffffffffffffffffffffffffffffff021916908373ffffffffffffffffffffffffffffffffffffffff16021790555060608201518160020160146101000a81548160ff02191690831515021790555050505080601460008b8152602001908152602001600020600082015181600001556020820151816001015560408201518160020160006101000a81548173ffffffffffffffffffffffffffffffffffffffff021916908373ffffffffffffffffffffffffffffffffffffffff16021790555060608201518160020160146101000a81548160ff0219169083151502179055509050507fbf9d55c5248e1b239e13260bd67d4050013e10ce016503491ee4e7114425e9fc8a8a85604051610b5a93929190613ff6565b60405180910390a150505050505050505050565b610b783382611575565b610b8157600080fd5b610b8c83838361160a565b505050565b610bd0828260006040519080825280601f01601f191660200182016040528015610bca5781602001600182028038833980820191505090505b50610c47565b5050565b6000610bdf83610d8b565b8210610bea57600080fd5b600660008473ffffffffffffffffffffffffffffffffffffffff1673ffffffffffffffffffffffffffffffffffffffff1681526020019081526020016000208281548110610c3457fe5b9060005260206000200154905092915050565b505050565b60008060009054906101000a900473ffffffffffffffffffffffffffffffffffffffff1673ffffffffffffffffffffffffffffffffffffffff163373ffffffffffffffffffffffffffffffffffffffff1614610cdd576040517f08c379a0000000000000000000000000000000000000000000000000000000008152600401610cd490614156565b60405180910390fd5b610ce7838361162e565b610cf08261164f565b6001905092915050565b610d15838383604051806020016040528060008152506111ab565b505050565b6000610d246108b0565b8210610d2f57600080fd5b60088281548110610d3c57fe5b90600052602060002001549050919050565b60006002600083815260200190815260200160002060009054906101000a900473ffffffffffffffffffffffffffffffffffffffff169050919050565b6000610dd4600460008473ffffffffffffffffffffffffffffffffffffffff1673ffffffffffffffffffffffffffffffffffffffff16815260200190815260200160002061176d565b9050919050565b6014600087815260200190815260200160002060020160149054906101000a900460ff1615610e3f576040517f08c379a0000000000000000000000000000000000000000000000000000000008152600401610e3690614136565b60405180910390fd5b610e4e878787878787876108bd565b610e588787610c4c565b5050505050505050565b60008060009054906101000a900473ffffffffffffffffffffffffffffffffffffffff16905090565b6060806060600f60106011828054600181600116156101000203166002900480601f016020809104026020016040519081016040528092919081815260200182805460018160011615610100020316600290048015610f2b5780601f10610f0057610100808354040283529160200191610f2b565b820191906000526020600020905b815481529060010190602001808311610f0e57829003601f168201915b50505050509250818054600181600116156101000203166002900480601f016020809104026020016040519081016040528092919081815260200182805460018160011615610100020316600290048015610fc75780601f10610f9c57610100808354040283529160200191610fc7565b820191906000526020600020905b815481529060010190602001808311610faa57829003601f168201915b50505050509150808054600181600116156101000203166002900480601f0160208091040260200160405190810160405280929190818152602001828054600181600116156101000203166002900480156110635780601f1061103857610100808354040283529160200191611063565b820191906000526020600020905b81548152906001019060200180831161104657829003601f168201915b50505050509050925092509250909192565b3373ffffffffffffffffffffffffffffffffffffffff168273ffffffffffffffffffffffffffffffffffffffff1614156110ae57600080fd5b80600560003373ffffffffffffffffffffffffffffffffffffffff1673ffffffffffffffffffffffffffffffffffffffff16815260200190815260200160002060008473ffffffffffffffffffffffffffffffffffffffff1673ffffffffffffffffffffffffffffffffffffffff16815260200190815260200160002060006101000a81548160ff0219169083151502179055508173ffffffffffffffffffffffffffffffffffffffff163373ffffffffffffffffffffffffffffffffffffffff167f17307eab39ab6107e8899845ad3d59bd9653f200f220920489ca2b5937696c318360405161119f919061402d565b60405180910390a35050565b6111b6848484610b6e565b6111c28484848461177b565b6111cb57600080fd5b50505050565b60606111dc82611892565b6111e557600080fd5b601260008381526020019081526020016000208054600181600116156101000203166002900480601f01602080910402602001604051908101604052809291908181526020018280546001816001161561010002031660029004801561128c5780601f106112615761010080835404028352916020019161128c565b820191906000526020600020905b81548152906001019060200180831161126f57829003601f168201915b50505050509050919050565b6000600560008473ffffffffffffffffffffffffffffffffffffffff1673ffffffffffffffffffffffffffffffffffffffff16815260200190815260200160002060008373ffffffffffffffffffffffffffffffffffffffff1673ffffffffffffffffffffffffffffffffffffffff16815260200190815260200160002060009054906101000a900460ff16905092915050565b6000809054906101000a900473ffffffffffffffffffffffffffffffffffffffff1673ffffffffffffffffffffffffffffffffffffffff163373ffffffffffffffffffffffffffffffffffffffff16146113bb576040517f08c379a00000000000000000000000000000000000000000000000000000000081526004016113b290614156565b60405180910390fd5b80600073ffffffffffffffffffffffffffffffffffffffff168173ffffffffffffffffffffffffffffffffffffffff16141561142c576040517f08c379a0000000000000000000000000000000000000000000000000000000008152600401611423906140b6565b60405180910390fd5b60008060009054906101000a900473ffffffffffffffffffffffffffffffffffffffff169050826000806101000a81548173ffffffffffffffffffffffffffffffffffffffff021916908373ffffffffffffffffffffffffffffffffffffffff1602179055507f5b94a5f1a151b859c1d5794b3740dff40527ffc8d12281797c100d36bcfd132181846040516114c3929190613fcd565b60405180910390a1505050565b6000606060016040519080825280602002602001820160405280156115045781602001602082028038833980820191505090505b50905060008090505b600181101561154c5783816001811061152257fe5b602002015182828151811061153357fe5b602002602001018181525050808060010191505061150d565b5060006115598286611904565b141561156957600191505061156f565b60009150505b92915050565b60008061158183610d4e565b90508073ffffffffffffffffffffffffffffffffffffffff168473ffffffffffffffffffffffffffffffffffffffff1614806115f057508373ffffffffffffffffffffffffffffffffffffffff166115d884610535565b73ffffffffffffffffffffffffffffffffffffffff16145b8061160157506116008185611298565b5b91505092915050565b611615838383611a76565b61161f8382611d09565b6116298282611ea7565b505050565b6116388282611f6e565b6116428282611ea7565b61164b816120af565b5050565b61165881611892565b611697576040517f08c379a000000000000000000000000000000000000000000000000000000000815260040161168e906141b6565b60405180910390fd5b61174360118054600181600116156101000203166002900480601f0160208091040260200160405190810160405280929190818152602001828054600181600116156101000203166002900480156117305780601f1061170557610100808354040283529160200191611730565b820191906000526020600020905b81548152906001019060200180831161171357829003601f168201915b505050505061173e836120fb565b612228565b60126000838152602001908152602001600020908051906020019061176992919061300b565b5050565b600081600001549050919050565b600061179c8473ffffffffffffffffffffffffffffffffffffffff1661226c565b6117a9576001905061188a565b60008473ffffffffffffffffffffffffffffffffffffffff1663150b7a02338887876040518563ffffffff1660e01b81526004016117ea9493929190613f81565b602060405180830381600087803b15801561180457600080fd5b505af1158015611818573d6000803e3d6000fd5b505050506040513d601f19601f8201168201806040525061183c9190810190613963565b905063150b7a0260e01b7bffffffffffffffffffffffffffffffffffffffffffffffffffffffff1916817bffffffffffffffffffffffffffffffffffffffffffffffffffffffff1916149150505b949350505050565b6000806002600084815260200190815260200160002060009054906101000a900473ffffffffffffffffffffffffffffffffffffffff169050600073ffffffffffffffffffffffffffffffffffffffff168173ffffffffffffffffffffffffffffffffffffffff161415915050919050565b6000807f30644e72e131a029b85045b68181585d2833e84879b9709143e1f593f0000001905061193261308b565b61193a6122b7565b905080608001515160018651011461195157600080fd5b6119596130d2565b6040518060400160405280600081526020016000815250905060008090505b86518110156119ef578387828151811061198e57fe5b6020026020010151106119a057600080fd5b6119e0826119db856080015160018501815181106119ba57fe5b60200260200101518a85815181106119ce57fe5b6020026020010151612694565b612726565b91508080600101915050611978565b50611a12818360800151600081518110611a0557fe5b6020026020010151612726565b9050611a5885600001518660200151611a2a846127d7565b8560400151611a3c8a604001516127d7565b8760600151611a4e89600001516127d7565b8960200151612871565b611a685760019350505050611a70565b600093505050505b92915050565b8273ffffffffffffffffffffffffffffffffffffffff166002600083815260200190815260200160002060009054906101000a900473ffffffffffffffffffffffffffffffffffffffff1673ffffffffffffffffffffffffffffffffffffffff1614611b17576040517f08c379a0000000000000000000000000000000000000000000000000000000008152600401611b0e90614116565b60405180910390fd5b611b368273ffffffffffffffffffffffffffffffffffffffff1661226c565b15611b76576040517f08c379a0000000000000000000000000000000000000000000000000000000008152600401611b6d906140f6565b60405180910390fd5b60006003600083815260200190815260200160002060006101000a81548173ffffffffffffffffffffffffffffffffffffffff021916908373ffffffffffffffffffffffffffffffffffffffff160217905550611c10600460008573ffffffffffffffffffffffffffffffffffffffff1673ffffffffffffffffffffffffffffffffffffffff1681526020019081526020016000206129d5565b611c57600460008473ffffffffffffffffffffffffffffffffffffffff1673ffffffffffffffffffffffffffffffffffffffff1681526020019081526020016000206129f8565b816002600083815260200190815260200160002060006101000a81548173ffffffffffffffffffffffffffffffffffffffff021916908373ffffffffffffffffffffffffffffffffffffffff160217905550808273ffffffffffffffffffffffffffffffffffffffff168473ffffffffffffffffffffffffffffffffffffffff167fddf252ad1be2c89b69c2b068fc378daa952ba7f163c4a11628f55a4df523b3ef60405160405180910390a4505050565b6000611d616001600660008673ffffffffffffffffffffffffffffffffffffffff1673ffffffffffffffffffffffffffffffffffffffff16815260200190815260200160002080549050612a0e90919063ffffffff16565b9050600060076000848152602001908152602001600020549050818114611e4e576000600660008673ffffffffffffffffffffffffffffffffffffffff1673ffffffffffffffffffffffffffffffffffffffff1681526020019081526020016000208381548110611dce57fe5b9060005260206000200154905080600660008773ffffffffffffffffffffffffffffffffffffffff1673ffffffffffffffffffffffffffffffffffffffff1681526020019081526020016000208381548110611e2657fe5b9060005260206000200181905550816007600083815260200190815260200160002081905550505b600660008573ffffffffffffffffffffffffffffffffffffffff1673ffffffffffffffffffffffffffffffffffffffff168152602001908152602001600020805480919060019003611ea091906130ec565b5050505050565b600660008373ffffffffffffffffffffffffffffffffffffffff1673ffffffffffffffffffffffffffffffffffffffff168152602001908152602001600020805490506007600083815260200190815260200160002081905550600660008373ffffffffffffffffffffffffffffffffffffffff1673ffffffffffffffffffffffffffffffffffffffff1681526020019081526020016000208190806001815401808255809150509060018203906000526020600020016000909192909190915055505050565b611f7781611892565b15611fb7576040517f08c379a0000000000000000000000000000000000000000000000000000000008152600401611fae90614196565b60405180910390fd5b816002600083815260200190815260200160002060006101000a81548173ffffffffffffffffffffffffffffffffffffffff021916908373ffffffffffffffffffffffffffffffffffffffff160217905550612050600460008473ffffffffffffffffffffffffffffffffffffffff1673ffffffffffffffffffffffffffffffffffffffff1681526020019081526020016000206129f8565b808273ffffffffffffffffffffffffffffffffffffffff163373ffffffffffffffffffffffffffffffffffffffff167fddf252ad1be2c89b69c2b068fc378daa952ba7f163c4a11628f55a4df523b3ef60405160405180910390a45050565b6008805490506009600083815260200190815260200160002081905550600881908060018154018082558091505090600182039060005260206000200160009091929091909150555050565b60606000821415612143576040518060400160405280600181526020017f30000000000000000000000000000000000000000000000000000000000000008152509050612223565b600082905060005b6000821461216d578080600101915050600a828161216557fe5b04915061214b565b6060816040519080825280601f01601f1916602001820160405280156121a25781602001600182028038833980820191505090505b50905060006001830390505b6000861461221b57600a86816121c057fe5b0660300160f81b828280600190039350815181106121da57fe5b60200101907effffffffffffffffffffffffffffffffffffffffffffffffffffffffffffff1916908160001a905350600a868161221357fe5b0495506121ae565b819450505050505b919050565b60606122648383604051806020016040528060008152506040518060200160405280600081525060405180602001604052806000815250612a58565b905092915050565b60008060007fc5d2460186f7233c927e7db2dcc703c0e500b653ca82273b7bfad8045d85a47060001b9050833f91508082141580156122ae57506000801b8214155b92505050919050565b6122bf61308b565b60405180604001604052807f192859db0092c3da687459caa8aac8ad63338bbe91c5bf26adbf6fdd34f7c98381526020017f046fc112a2bff6ebcb1bf882ca4495c547c3937bf515e6dbfe7a11efe15f361e8152508160000181905250604051806040016040528060405180604001604052807f19e93dbf81ca4473e17ebc67eb95c8c71b878b971dd43011d930b189a247e6c781526020017f03cb8ed5b3a2f567057d99b750f295764e1ee76ad52390d1429326406e22f9c7815250815260200160405180604001604052807f1ce7f135665d8d40a952fbc64a3cb83d11ebc613726f233f30c5a04d990020ab81526020017f0f36b2470249ec5e9b9b5c5317fcb5ee70d6b4516cae9e6c956fedf642cb9ed58152508152508160200181905250604051806040016040528060405180604001604052807f1ae6594248ace6709f345d50053c3cf6a669bc9fb9ed00ed06abe9af2b3cebb881526020017f2cf5495213c4b66989f93c94ce7b657041b63769add155206b3fbc63dbec9a42815250815260200160405180604001604052807f18808792a8542ea19bccd35907b601d711e17eafa633ca7e17bb777ae9c9381281526020017f151dc4e3b0a343888a06ff8b4f433b13295ec7bae3f6157a3cf0178f717a48448152508152508160400181905250604051806040016040528060405180604001604052807f1ad881af9179c447e837c771e121556467c9c1307faa7d99e2bdfa7881c12d5e81526020017f2941df1d82de65b659271acf23e7a2f323bb1ba4669355ef432b73d5958c685c815250815260200160405180604001604052807f2af726dae34270823edad0d3e97e6079b9435b5444e44cbebb786c1994d5926181526020017f185c267cd0a3996e8e8a06eb0da43c4ced46bf2b363a315adc56cd570ac39f5e815250815250816060018190525060026040519080825280602002602001820160405280156125a657816020015b612593613118565b81526020019060019003908161258b5790505b50816080018190525060405180604001604052807f0ebd73279091c642fa18989bcef68ad2da9355a62f9a840925be951b8768c46481526020017f1e359103b6f06837e4d380a468acd2fbab1341d360275a25ebd348eb078f3031815250816080015160008151811061261557fe5b602002602001018190525060405180604001604052807f02d821bc94600394bb957a914df852ecdc842ff40d717af116628480c667828481526020017f15be96c89646bb86e642fa76f0fc9ec843b7eda5a86c8fcc72a1255405da69e4815250816080015160018151811061268657fe5b602002602001018190525090565b61269c6130d2565b6126a4613132565b8360000151816000600381106126b657fe5b6020020181815250508360200151816001600381106126d157fe5b60200201818152505082816002600381106126e857fe5b602002018181525050600060608360808460076107d05a03fa9050806000811461271157612713565bfe5b508061271e57600080fd5b505092915050565b61272e6130d2565b612736613154565b83600001518160006004811061274857fe5b60200201818152505083602001518160016004811061276357fe5b60200201818152505082600001518160026004811061277e57fe5b60200201818152505082602001518160036004811061279957fe5b602002018181525050600060608360c08460066107d05a03fa905080600081146127c2576127c4565bfe5b50806127cf57600080fd5b505092915050565b6127df6130d2565b60007f30644e72e131a029b85045b68181585d97816a916871ca8d3c208c16d87cfd4790506000836000015114801561281c575060008360200151145b1561284057604051806040016040528060008152602001600081525091505061286c565b6040518060400160405280846000015181526020018285602001518161286257fe5b0683038152509150505b919050565b6000606060046040519080825280602002602001820160405280156128b057816020015b61289d613118565b8152602001906001900390816128955790505b509050606060046040519080825280602002602001820160405280156128f057816020015b6128dd613176565b8152602001906001900390816128d55790505b5090508a8260008151811061290157fe5b6020026020010181905250888260018151811061291a57fe5b6020026020010181905250868260028151811061293357fe5b6020026020010181905250848260038151811061294c57fe5b6020026020010181905250898160008151811061296557fe5b6020026020010181905250878160018151811061297e57fe5b6020026020010181905250858160028151811061299757fe5b602002602001018190525083816003815181106129b057fe5b60200260200101819052506129c58282612d1a565b9250505098975050505050505050565b6129ed60018260000154612a0e90919063ffffffff16565b816000018190555050565b6001816000016000828254019250508190555050565b6000612a5083836040518060400160405280601e81526020017f536166654d6174683a207375627472616374696f6e206f766572666c6f770000815250612f6d565b905092915050565b6060808690506060869050606086905060608690506060869050606081518351855187518951010101016040519080825280601f01601f191660200182016040528015612ab45781602001600182028038833980820191505090505b509050606081905060008090506000809050600090505b8851811015612b3957888181518110612ae057fe5b602001015160f81c60f81b838380600101945081518110612afd57fe5b60200101907effffffffffffffffffffffffffffffffffffffffffffffffffffffffffffff1916908160001a9053508080600101915050612acb565b600090505b8751811015612bac57878181518110612b5357fe5b602001015160f81c60f81b838380600101945081518110612b7057fe5b60200101907effffffffffffffffffffffffffffffffffffffffffffffffffffffffffffff1916908160001a9053508080600101915050612b3e565b600090505b8651811015612c1f57868181518110612bc657fe5b602001015160f81c60f81b838380600101945081518110612be357fe5b60200101907effffffffffffffffffffffffffffffffffffffffffffffffffffffffffffff1916908160001a9053508080600101915050612bb1565b600090505b8551811015612c9257858181518110612c3957fe5b602001015160f81c60f81b838380600101945081518110612c5657fe5b60200101907effffffffffffffffffffffffffffffffffffffffffffffffffffffffffffff1916908160001a9053508080600101915050612c24565b600090505b8451811015612d0557848181518110612cac57fe5b602001015160f81c60f81b838380600101945081518110612cc957fe5b60200101907effffffffffffffffffffffffffffffffffffffffffffffffffffffffffffff1916908160001a9053508080600101915050612c97565b82995050505050505050505095945050505050565b60008151835114612d2a57600080fd5b6000835190506000600682029050606081604051908082528060200260200182016040528015612d695781602001602082028038833980820191505090505b50905060008090505b83811015612f0f57868181518110612d8657fe5b602002602001015160000151826000600684020181518110612da457fe5b602002602001018181525050868181518110612dbc57fe5b602002602001015160200151826001600684020181518110612dda57fe5b602002602001018181525050858181518110612df257fe5b602002602001015160000151600160028110612e0a57fe5b6020020151826002600684020181518110612e2157fe5b602002602001018181525050858181518110612e3957fe5b602002602001015160000151600060028110612e5157fe5b6020020151826003600684020181518110612e6857fe5b602002602001018181525050858181518110612e8057fe5b602002602001015160200151600160028110612e9857fe5b6020020151826004600684020181518110612eaf57fe5b602002602001018181525050858181518110612ec757fe5b602002602001015160200151600060028110612edf57fe5b6020020151826005600684020181518110612ef657fe5b6020026020010181815250508080600101915050612d72565b50612f1861319c565b6000602082602086026020860160086107d05a03fa90508060008114612f3d57612f3f565bfe5b5080612f4a57600080fd5b600082600060018110612f5957fe5b602002015114159550505050505092915050565b6000838311158290612fb5576040517f08c379a0000000000000000000000000000000000000000000000000000000008152600401612fac9190614048565b60405180910390fd5b5060008385039050809150509392505050565b60405180608001604052806000815260200160008019168152602001600073ffffffffffffffffffffffffffffffffffffffff1681526020016000151581525090565b828054600181600116156101000203166002900490600052602060002090601f016020900481019282601f1061304c57805160ff191683800117855561307a565b8280016001018555821561307a579182015b8281111561307957825182559160200191906001019061305e565b5b50905061308791906131be565b5090565b6040518060a0016040528061309e613118565b81526020016130ab613176565b81526020016130b8613176565b81526020016130c5613176565b8152602001606081525090565b604051806040016040528060008152602001600081525090565b8154818355818111156131135781836000526020600020918201910161311291906131be565b5b505050565b604051806040016040528060008152602001600081525090565b6040518060600160405280600390602082028038833980820191505090505090565b6040518060800160405280600490602082028038833980820191505090505090565b60405180604001604052806131896131e3565b81526020016131966131e3565b81525090565b6040518060200160405280600190602082028038833980820191505090505090565b6131e091905b808211156131dc5760008160009055506001016131c4565b5090565b90565b6040518060400160405280600290602082028038833980820191505090505090565b600081359050613214816144f1565b92915050565b600082601f83011261322b57600080fd5b600261323e6132398261421e565b6141f1565b9150818385604084028201111561325457600080fd5b60005b83811015613284578161326a8882613302565b845260208401935060408301925050600181019050613257565b5050505092915050565b600082601f83011261329f57600080fd5b60016132b26132ad82614240565b6141f1565b915081838560208402820111156132c857600080fd5b60005b838110156132f857816132de88826135df565b8452602084019350602083019250506001810190506132cb565b5050505092915050565b600082601f83011261331357600080fd5b600261332661332182614262565b6141f1565b9150818385602084028201111561333c57600080fd5b60005b8381101561336c578161335288826135df565b84526020840193506020830192505060018101905061333f565b5050505092915050565b600082601f83011261338757600080fd5b600261339a61339582614284565b6141f1565b915081838560208402820111156133b057600080fd5b60005b838110156133e057816133c688826135df565b8452602084019350602083019250506001810190506133b3565b5050505092915050565b6000813590506133f981614508565b92915050565b60008135905061340e8161451f565b92915050565b60008135905061342381614536565b92915050565b60008151905061343881614536565b92915050565b600082601f83011261344f57600080fd5b813561346261345d826142a6565b6141f1565b9150808252602083016020830185838301111561347e57600080fd5b61348983828461449e565b50505092915050565b600082601f8301126134a357600080fd5b81356134b66134b1826142d2565b6141f1565b915080825260208301602083018583830111156134d257600080fd5b6134dd83828461449e565b50505092915050565b6000604082840312156134f857600080fd5b61350260406141f1565b90506000613512848285016135df565b6000830152506020613526848285016135df565b60208301525092915050565b60006080828403121561354457600080fd5b61354e60406141f1565b9050600061355e84828501613302565b600083015250604061357284828501613302565b60208301525092915050565b6000610100828403121561359157600080fd5b61359b60606141f1565b905060006135ab848285016134e6565b60008301525060406135bf84828501613532565b60208301525060c06135d3848285016134e6565b60408301525092915050565b6000813590506135ee8161454d565b92915050565b60006020828403121561360657600080fd5b600061361484828501613205565b91505092915050565b6000806040838503121561363057600080fd5b600061363e85828601613205565b925050602061364f85828601613205565b9150509250929050565b60008060006060848603121561366e57600080fd5b600061367c86828701613205565b935050602061368d86828701613205565b925050604061369e868287016135df565b9150509250925092565b600080600080608085870312156136be57600080fd5b60006136cc87828801613205565b94505060206136dd87828801613205565b93505060406136ee878288016135df565b925050606085013567ffffffffffffffff81111561370b57600080fd5b6137178782880161343e565b91505092959194509250565b6000806040838503121561373657600080fd5b600061374485828601613205565b9250506020613755858286016133ea565b9150509250929050565b6000806040838503121561377257600080fd5b600061378085828601613205565b9250506020613791858286016135df565b9150509250929050565b6000806000806000806000610260888a0312156137b757600080fd5b60006137c58a828b01613205565b97505060206137d68a828b016135df565b96505060406137e78a828b0161357e565b9550506101406137f98a828b01613376565b94505061018061380b8a828b0161321a565b93505061020061381d8a828b01613376565b92505061024061382f8a828b0161328e565b91505092959891949750929550565b60006020828403121561385057600080fd5b600061385e848285016133ea565b91505092915050565b6000806040838503121561387a57600080fd5b6000613888858286016133ff565b925050602083013567ffffffffffffffff8111156138a557600080fd5b6138b185828601613492565b9150509250929050565b6000806000606084860312156138d057600080fd5b60006138de868287016133ff565b935050602084013567ffffffffffffffff8111156138fb57600080fd5b61390786828701613492565b925050604084013567ffffffffffffffff81111561392457600080fd5b6139308682870161343e565b9150509250925092565b60006020828403121561394c57600080fd5b600061395a84828501613414565b91505092915050565b60006020828403121561397557600080fd5b600061398384828501613429565b91505092915050565b60008061012083850312156139a057600080fd5b60006139ae8582860161357e565b9250506101006139c08582860161328e565b9150509250929050565b6000602082840312156139dc57600080fd5b60006139ea848285016135df565b91505092915050565b60006139ff8383613b46565b60408301905092915050565b6000613a178383613eee565b60208301905092915050565b613a2c81614468565b82525050565b613a3b816143ea565b82525050565b613a4a81614326565b613a54818461439c565b9250613a5f826142fe565b8060005b83811015613a90578151613a7787826139f3565b9650613a8283614368565b925050600181019050613a63565b505050505050565b613aa181614331565b613aab81846143a7565b9250613ab682614308565b8060005b83811015613ae7578151613ace8782613a0b565b9650613ad983614375565b925050600181019050613aba565b505050505050565b613af881614347565b613b0281846143bd565b9250613b0d8261431c565b8060005b83811015613b3e578151613b258782613a0b565b9650613b308361438f565b925050600181019050613b11565b505050505050565b613b4f8161433c565b613b5981846143b2565b9250613b6482614312565b8060005b83811015613b95578151613b7c8782613a0b565b9650613b8783614382565b925050600181019050613b68565b505050505050565b613ba6816143fc565b82525050565b613bb581614408565b82525050565b6000613bc682614352565b613bd081856143c8565b9350613be08185602086016144ad565b613be9816144e0565b840191505092915050565b6000613bff8261435d565b613c0981856143d9565b9350613c198185602086016144ad565b613c22816144e0565b840191505092915050565b6000613c3a6014836143d9565b91507f41646472657373206973206e6f742076616c69640000000000000000000000006000830152602082019050919050565b6000613c7a6012836143d9565b91507f50726f6f6620697320696e636f727265637400000000000000000000000000006000830152602082019050919050565b6000613cba602b836143d9565b91507f7472616e7366657272696e672061646472657373206973206e6f74206120766160008301527f6c696420616464726573730000000000000000000000000000000000000000006020830152604082019050919050565b6000613d206021836143d9565b91507f6f6e6c79206f776e65722063616e207472616e73666572206f776e657273686960008301527f70000000000000000000000000000000000000000000000000000000000000006020830152604082019050919050565b6000613d866017836143d9565b91507f536f6c7574696f6e20616c7265616479206578697374730000000000000000006000830152602082019050919050565b6000613dc6601c836143d9565b91507f43616c6c6572206973206e6f7420636f6e7472616374206f776e6572000000006000830152602082019050919050565b6000613e066029836143d9565b91507f417070726f7665722063616e6e6f7420626520746865206f776e6572206f662060008301527f74686520746f6b656e00000000000000000000000000000000000000000000006020830152604082019050919050565b6000613e6c6016836143d9565b91507f746f6b656e496420616c726561647920657869737473000000000000000000006000830152602082019050919050565b6000613eac6014836143d9565b91507f746f6b656e20646f6573206e6f742065786973740000000000000000000000006000830152602082019050919050565b613ee88161445e565b82525050565b613ef78161445e565b82525050565b6000613f098287613aef565b604082019150613f198286613a41565b608082019150613f298285613aef565b604082019150613f398284613a98565b60208201915081905095945050505050565b6000602082019050613f606000830184613a32565b92915050565b6000602082019050613f7b6000830184613a23565b92915050565b6000608082019050613f966000830187613a23565b613fa36020830186613a32565b613fb06040830185613edf565b8181036060830152613fc28184613bbb565b905095945050505050565b6000604082019050613fe26000830185613a32565b613fef6020830184613a32565b9392505050565b600060608201905061400b6000830186613a32565b6140186020830185613edf565b6140256040830184613bac565b949350505050565b60006020820190506140426000830184613b9d565b92915050565b600060208201905081810360008301526140628184613bf4565b905092915050565b600060608201905081810360008301526140848186613bf4565b905081810360208301526140988185613bf4565b905081810360408301526140ac8184613bf4565b9050949350505050565b600060208201905081810360008301526140cf81613c2d565b9050919050565b600060208201905081810360008301526140ef81613c6d565b9050919050565b6000602082019050818103600083015261410f81613cad565b9050919050565b6000602082019050818103600083015261412f81613d13565b9050919050565b6000602082019050818103600083015261414f81613d79565b9050919050565b6000602082019050818103600083015261416f81613db9565b9050919050565b6000602082019050818103600083015261418f81613df9565b9050919050565b600060208201905081810360008301526141af81613e5f565b9050919050565b600060208201905081810360008301526141cf81613e9f565b9050919050565b60006020820190506141eb6000830184613edf565b92915050565b6000604051905081810181811067ffffffffffffffff8211171561421457600080fd5b8060405250919050565b600067ffffffffffffffff82111561423557600080fd5b602082029050919050565b600067ffffffffffffffff82111561425757600080fd5b602082029050919050565b600067ffffffffffffffff82111561427957600080fd5b602082029050919050565b600067ffffffffffffffff82111561429b57600080fd5b602082029050919050565b600067ffffffffffffffff8211156142bd57600080fd5b601f19601f8301169050602081019050919050565b600067ffffffffffffffff8211156142e957600080fd5b601f19601f8301169050602081019050919050565b6000819050919050565b6000819050919050565b6000819050919050565b6000819050919050565b600060029050919050565b600060019050919050565b600060029050919050565b600060029050919050565b600081519050919050565b600081519050919050565b6000602082019050919050565b6000602082019050919050565b6000602082019050919050565b6000602082019050919050565b600081905092915050565b600081905092915050565b600081905092915050565b600081905092915050565b600082825260208201905092915050565b600082825260208201905092915050565b60006143f58261443e565b9050919050565b60008115159050919050565b6000819050919050565b60007fffffffff0000000000000000000000000000000000000000000000000000000082169050919050565b600073ffffffffffffffffffffffffffffffffffffffff82169050919050565b6000819050919050565b60006144738261447a565b9050919050565b60006144858261448c565b9050919050565b60006144978261443e565b9050919050565b82818337600083830152505050565b60005b838110156144cb5780820151818401526020810190506144b0565b838111156144da576000848401525b50505050565b6000601f19601f8301169050919050565b6144fa816143ea565b811461450557600080fd5b50565b614511816143fc565b811461451c57600080fd5b50565b61452881614408565b811461453357600080fd5b50565b61453f81614412565b811461454a57600080fd5b50565b6145568161445e565b811461456157600080fd5b5056fea365627a7a72315820a84ceaa0e6c64712e2cce11f38864c213a32e773eff5e281098957946d54c7bc6c6578706572696d656e74616cf564736f6c6343000511004068747470733a2f2f73332d75732d776573742d322e616d617a6f6e6177732e636f6d2f756461636974792d626c6f636b636861696e2f63617073746f6e652f",
  "source": "pragma experimental ABIEncoderV2;\r\npragma solidity >=0.4.21 <0.6.0;\r\n\r\nimport \"./ERC721Mintable.sol\";\r\nimport \"./Verifier.sol\";\r\n\r\n// TODO define a contract call to the zokrates generated solidity contract <Verifier> or <renamedVerifier>\r\ncontract SquareVerifier is Verifier {}\r\n\r\n// TODO define another contract named SolnSquareVerifier that inherits from your ERC721Mintable class\r\n\r\ncontract SolnSquareVerifier is SquareVerifier, CustomERC721Token {\r\n\r\n// TODO define a solutions struct that can hold an index & an address\r\n    struct Solution {\r\n        uint256 _index;\r\n        bytes32 key;\r\n        address _address;\r\n        bool verified;\r\n    }\r\n\r\n    // struct ProofSolns {\r\n    //   uint[2] a;\r\n    //   uint[2] b;\r\n    //   uint[2] c;\r\n    // }\r\n\r\n// TODO define an array of the above struct\r\n    Solution[] solutionArray;\r\n\r\n// TODO define a mapping to store unique solutions submitted\r\n    mapping(uint256 => Solution) private solutionMapping;\r\n\r\n// TODO Create an event to emit when a solution is added\r\n    event newSolutionAdded(address _address,uint256 _tokenId, bytes32 _key);\r\n\r\n// TODO Create a function to add the solutions to the array and emit the event\r\n    function addSolution(\r\n        address sender,\r\n        uint256 tokenId,\r\n        Proof memory proof,\r\n        uint[2] memory a,\r\n        uint[2] [2] memory b, \r\n        uint[2] memory c, \r\n        uint[1] memory input\r\n        ) \r\n        public\r\n        {\r\n          // check for valid solution\r\n          require(Verifier.verifyTx(proof, input), \"Proof is incorrect\");\r\n          // create a unique key\r\n          bytes32 key = keccak256(abi.encodePacked(a, b, c, input));\r\n          // check if the solution is unique\r\n          require(!solutionMapping[tokenId].verified, \"Solution already exists\");\r\n          // reccord the solution in the solution array\r\n          uint256 index = solutionArray.length;\r\n          Solution memory solution = Solution(index, key, sender, true);\r\n          solutionArray.push(solution);\r\n          // Map the solution in the solution mapping\r\n          solutionMapping[tokenId] = solution;\r\n          // emit according event\r\n          emit newSolutionAdded(sender, tokenId, key);\r\n        }\r\n\r\n// TODO Create a function to mint new NFT only after the solution has been verified\r\n    function mintNewNFT(\r\n            address to, \r\n            uint256 tokenId, \r\n            Proof memory proof,\r\n            uint[2] memory a,\r\n            uint[2] [2] memory b, \r\n            uint[2] memory c, \r\n            uint[1] memory input\r\n            ) \r\n        public \r\n        {\r\n            //  - make sure the solution is unique (has not been used before)\r\n            require(!solutionMapping[tokenId].verified, \"Solution already exists\");\r\n            //  - make sure you handle metadata as well as tokenSuplly\r\n            addSolution(to, tokenId, proof, a, b, c, input);\r\n            super.mint(to, tokenId);\r\n        }\r\n}",
  "sourcePath": "C:/Users/48his/Documents/TP/Blockchain/Blockchain-Capstone/eth-contracts/contracts/SolnSquareVerifier.sol",
  "compiler": {
    "name": "solc",
    "version": "0.5.17+commit.d19bba13.Emscripten.clang"
  },
  "schemaVersion": "3.0.1",
  "updatedAt": "2022-10-03T09:46:51.075Z",
  "devdoc": {
    "methods": {
      "getOwner()": {
        "details": "Return the contract owner"
      },
      "isApprovedForAll(address,address)": {
        "details": "Tells whether an operator is approved by a given owner",
        "params": {
          "operator": "operator address which you want to query the approval of",
          "owner": "owner address which you want to query the approval of"
        },
        "return": "bool whether the given operator is approved by the given owner"
      },
      "setApprovalForAll(address,bool)": {
        "details": "Sets or unsets the approval of a given operator An operator is allowed to transfer all tokens of the sender on their behalf",
        "params": {
          "approved": "representing the status of the approval to be set",
          "to": "operator address to set the approval"
        }
      },
      "setPaused(bool)": {
        "details": "public setter using the inherited onlyOwner modifier "
      },
      "supportsInterface(bytes4)": {
        "details": "implement supportsInterface(bytes4) using a lookup table"
      },
      "tokenByIndex(uint256)": {
        "details": "Gets the token ID at a given index of all the tokens in this contract Reverts if the index is greater or equal to the total number of tokens",
        "params": {
          "index": "uint256 representing the index to be accessed of the tokens list"
        },
        "return": "uint256 token ID at the given index of the tokens list"
      },
      "tokenOfOwnerByIndex(address,uint256)": {
        "details": "Gets the token ID at a given index of the tokens list of the requested owner",
        "params": {
          "index": "uint256 representing the index to be accessed of the requested tokens list",
          "owner": "address owning the tokens list to be accessed"
        },
        "return": "uint256 token ID at the given index of the tokens list owned by the requested address"
      },
      "totalSupply()": {
        "details": "Gets the total amount of tokens stored by the contract",
        "return": "uint256 representing the total amount of tokens"
      },
      "transferOwnership(address)": {
        "details": "Transfer Ownership of a contract"
      }
    }
  },
  "userdoc": {
    "methods": {}
  }
}