{
  "contractName": "SquareVerifier",
  "abi": [
    {
      "constant": true,
      "inputs": [
        {
          "components": [
            {
              "components": [
                {
                  "internalType": "uint256",
                  "name": "X",
                  "type": "uint256"
                },
                {
                  "internalType": "uint256",
                  "name": "Y",
                  "type": "uint256"
                }
              ],
              "internalType": "struct Pairing.G1Point",
              "name": "a",
              "type": "tuple"
            },
            {
              "components": [
                {
                  "internalType": "uint256[2]",
                  "name": "X",
                  "type": "uint256[2]"
                },
                {
                  "internalType": "uint256[2]",
                  "name": "Y",
                  "type": "uint256[2]"
                }
              ],
              "internalType": "struct Pairing.G2Point",
              "name": "b",
              "type": "tuple"
            },
            {
              "components": [
                {
                  "internalType": "uint256",
                  "name": "X",
                  "type": "uint256"
                },
                {
                  "internalType": "uint256",
                  "name": "Y",
                  "type": "uint256"
                }
              ],
              "internalType": "struct Pairing.G1Point",
              "name": "c",
              "type": "tuple"
            }
          ],
          "internalType": "struct Verifier.Proof",
          "name": "proof",
          "type": "tuple"
        },
        {
          "internalType": "uint256[1]",
          "name": "input",
          "type": "uint256[1]"
        }
      ],
      "name": "verifyTx",
      "outputs": [
        {
          "internalType": "bool",
          "name": "r",
          "type": "bool"
        }
      ],
      "payable": false,
      "stateMutability": "view",
      "type": "function",
      "signature": "0xf48d7729"
    }
  ],
  "bytecode": "0x608060405234801561001057600080fd5b50611050806100206000396000f3fe608060405234801561001057600080fd5b506004361061002b5760003560e01c8063f48d772914610030575b600080fd5b61004a60048036036100459190810190610f07565b610060565b6040516100579190610f54565b60405180910390f35b6000606060016040519080825280602002602001820160405280156100945781602001602082028038833980820191505090505b50905060008090505b60018110156100dc578381600181106100b257fe5b60200201518282815181106100c357fe5b602002602001018181525050808060010191505061009d565b5060006100e98286610105565b14156100f95760019150506100ff565b60009150505b92915050565b6000807f30644e72e131a029b85045b68181585d2833e84879b9709143e1f593f00000019050610133610be8565b61013b610277565b905080608001515160018651011461015257600080fd5b61015a610c2f565b6040518060400160405280600081526020016000815250905060008090505b86518110156101f0578387828151811061018f57fe5b6020026020010151106101a157600080fd5b6101e1826101dc856080015160018501815181106101bb57fe5b60200260200101518a85815181106101cf57fe5b6020026020010151610654565b6106e6565b91508080600101915050610179565b5061021381836080015160008151811061020657fe5b60200260200101516106e6565b90506102598560000151866020015161022b84610797565b856040015161023d8a60400151610797565b876060015161024f8960000151610797565b8960200151610831565b6102695760019350505050610271565b600093505050505b92915050565b61027f610be8565b60405180604001604052807f192859db0092c3da687459caa8aac8ad63338bbe91c5bf26adbf6fdd34f7c98381526020017f046fc112a2bff6ebcb1bf882ca4495c547c3937bf515e6dbfe7a11efe15f361e8152508160000181905250604051806040016040528060405180604001604052807f19e93dbf81ca4473e17ebc67eb95c8c71b878b971dd43011d930b189a247e6c781526020017f03cb8ed5b3a2f567057d99b750f295764e1ee76ad52390d1429326406e22f9c7815250815260200160405180604001604052807f1ce7f135665d8d40a952fbc64a3cb83d11ebc613726f233f30c5a04d990020ab81526020017f0f36b2470249ec5e9b9b5c5317fcb5ee70d6b4516cae9e6c956fedf642cb9ed58152508152508160200181905250604051806040016040528060405180604001604052807f1ae6594248ace6709f345d50053c3cf6a669bc9fb9ed00ed06abe9af2b3cebb881526020017f2cf5495213c4b66989f93c94ce7b657041b63769add155206b3fbc63dbec9a42815250815260200160405180604001604052807f18808792a8542ea19bccd35907b601d711e17eafa633ca7e17bb777ae9c9381281526020017f151dc4e3b0a343888a06ff8b4f433b13295ec7bae3f6157a3cf0178f717a48448152508152508160400181905250604051806040016040528060405180604001604052807f1ad881af9179c447e837c771e121556467c9c1307faa7d99e2bdfa7881c12d5e81526020017f2941df1d82de65b659271acf23e7a2f323bb1ba4669355ef432b73d5958c685c815250815260200160405180604001604052807f2af726dae34270823edad0d3e97e6079b9435b5444e44cbebb786c1994d5926181526020017f185c267cd0a3996e8e8a06eb0da43c4ced46bf2b363a315adc56cd570ac39f5e8152508152508160600181905250600260405190808252806020026020018201604052801561056657816020015b610553610c49565b81526020019060019003908161054b5790505b50816080018190525060405180604001604052807f0ebd73279091c642fa18989bcef68ad2da9355a62f9a840925be951b8768c46481526020017f1e359103b6f06837e4d380a468acd2fbab1341d360275a25ebd348eb078f303181525081608001516000815181106105d557fe5b602002602001018190525060405180604001604052807f02d821bc94600394bb957a914df852ecdc842ff40d717af116628480c667828481526020017f15be96c89646bb86e642fa76f0fc9ec843b7eda5a86c8fcc72a1255405da69e4815250816080015160018151811061064657fe5b602002602001018190525090565b61065c610c2f565b610664610c63565b83600001518160006003811061067657fe5b60200201818152505083602001518160016003811061069157fe5b60200201818152505082816002600381106106a857fe5b602002018181525050600060608360808460076107d05a03fa905080600081146106d1576106d3565bfe5b50806106de57600080fd5b505092915050565b6106ee610c2f565b6106f6610c85565b83600001518160006004811061070857fe5b60200201818152505083602001518160016004811061072357fe5b60200201818152505082600001518160026004811061073e57fe5b60200201818152505082602001518160036004811061075957fe5b602002018181525050600060608360c08460066107d05a03fa9050806000811461078257610784565bfe5b508061078f57600080fd5b505092915050565b61079f610c2f565b60007f30644e72e131a029b85045b68181585d97816a916871ca8d3c208c16d87cfd479050600083600001511480156107dc575060008360200151145b1561080057604051806040016040528060008152602001600081525091505061082c565b6040518060400160405280846000015181526020018285602001518161082257fe5b0683038152509150505b919050565b60006060600460405190808252806020026020018201604052801561087057816020015b61085d610c49565b8152602001906001900390816108555790505b509050606060046040519080825280602002602001820160405280156108b057816020015b61089d610ca7565b8152602001906001900390816108955790505b5090508a826000815181106108c157fe5b602002602001018190525088826001815181106108da57fe5b602002602001018190525086826002815181106108f357fe5b6020026020010181905250848260038151811061090c57fe5b6020026020010181905250898160008151811061092557fe5b6020026020010181905250878160018151811061093e57fe5b6020026020010181905250858160028151811061095757fe5b6020026020010181905250838160038151811061097057fe5b60200260200101819052506109858282610995565b9250505098975050505050505050565b600081518351146109a557600080fd5b60008351905060006006820290506060816040519080825280602002602001820160405280156109e45781602001602082028038833980820191505090505b50905060008090505b83811015610b8a57868181518110610a0157fe5b602002602001015160000151826000600684020181518110610a1f57fe5b602002602001018181525050868181518110610a3757fe5b602002602001015160200151826001600684020181518110610a5557fe5b602002602001018181525050858181518110610a6d57fe5b602002602001015160000151600160028110610a8557fe5b6020020151826002600684020181518110610a9c57fe5b602002602001018181525050858181518110610ab457fe5b602002602001015160000151600060028110610acc57fe5b6020020151826003600684020181518110610ae357fe5b602002602001018181525050858181518110610afb57fe5b602002602001015160200151600160028110610b1357fe5b6020020151826004600684020181518110610b2a57fe5b602002602001018181525050858181518110610b4257fe5b602002602001015160200151600060028110610b5a57fe5b6020020151826005600684020181518110610b7157fe5b60200260200101818152505080806001019150506109ed565b50610b93610ccd565b6000602082602086026020860160086107d05a03fa90508060008114610bb857610bba565bfe5b5080610bc557600080fd5b600082600060018110610bd457fe5b602002015114159550505050505092915050565b6040518060a00160405280610bfb610c49565b8152602001610c08610ca7565b8152602001610c15610ca7565b8152602001610c22610ca7565b8152602001606081525090565b604051806040016040528060008152602001600081525090565b604051806040016040528060008152602001600081525090565b6040518060600160405280600390602082028038833980820191505090505090565b6040518060800160405280600490602082028038833980820191505090505090565b6040518060400160405280610cba610cef565b8152602001610cc7610cef565b81525090565b6040518060200160405280600190602082028038833980820191505090505090565b6040518060400160405280600290602082028038833980820191505090505090565b600082601f830112610d2257600080fd5b6001610d35610d3082610f9c565b610f6f565b91508183856020840282011115610d4b57600080fd5b60005b83811015610d7b5781610d618882610ef2565b845260208401935060208301925050600181019050610d4e565b5050505092915050565b600082601f830112610d9657600080fd5b6002610da9610da482610fbe565b610f6f565b91508183856020840282011115610dbf57600080fd5b60005b83811015610def5781610dd58882610ef2565b845260208401935060208301925050600181019050610dc2565b5050505092915050565b600060408284031215610e0b57600080fd5b610e156040610f6f565b90506000610e2584828501610ef2565b6000830152506020610e3984828501610ef2565b60208301525092915050565b600060808284031215610e5757600080fd5b610e616040610f6f565b90506000610e7184828501610d85565b6000830152506040610e8584828501610d85565b60208301525092915050565b60006101008284031215610ea457600080fd5b610eae6060610f6f565b90506000610ebe84828501610df9565b6000830152506040610ed284828501610e45565b60208301525060c0610ee684828501610df9565b60408301525092915050565b600081359050610f0181610ff6565b92915050565b6000806101208385031215610f1b57600080fd5b6000610f2985828601610e91565b925050610100610f3b85828601610d11565b9150509250929050565b610f4e81610fe0565b82525050565b6000602082019050610f696000830184610f45565b92915050565b6000604051905081810181811067ffffffffffffffff82111715610f9257600080fd5b8060405250919050565b600067ffffffffffffffff821115610fb357600080fd5b602082029050919050565b600067ffffffffffffffff821115610fd557600080fd5b602082029050919050565b60008115159050919050565b6000819050919050565b610fff81610fec565b811461100a57600080fd5b5056fea365627a7a72315820744a4ab9e6ec9fadb18f6152432a21d5dbb4ca7ab25dd5c3b8e6d117c27267666c6578706572696d656e74616cf564736f6c63430005110040",
  "source": "pragma experimental ABIEncoderV2;\r\npragma solidity >=0.4.21 <0.6.0;\r\n\r\nimport \"./ERC721Mintable.sol\";\r\nimport \"./Verifier.sol\";\r\n\r\n// TODO define a contract call to the zokrates generated solidity contract <Verifier> or <renamedVerifier>\r\ncontract SquareVerifier is Verifier {}\r\n\r\n// TODO define another contract named SolnSquareVerifier that inherits from your ERC721Mintable class\r\n\r\ncontract SolnSquareVerifier is SquareVerifier, CustomERC721Token {\r\n\r\n// TODO define a solutions struct that can hold an index & an address\r\n    struct Solution {\r\n        uint256 _index;\r\n        bytes32 key;\r\n        address _address;\r\n        bool verified;\r\n    }\r\n\r\n    // struct ProofSolns {\r\n    //   uint[2] a;\r\n    //   uint[2] b;\r\n    //   uint[2] c;\r\n    // }\r\n\r\n// TODO define an array of the above struct\r\n    Solution[] solutionArray;\r\n\r\n// TODO define a mapping to store unique solutions submitted\r\n    mapping(uint256 => Solution) private solutionMapping;\r\n\r\n// TODO Create an event to emit when a solution is added\r\n    event newSolutionAdded(address _address,uint256 _tokenId, bytes32 _key);\r\n\r\n// TODO Create a function to add the solutions to the array and emit the event\r\n    function addSolution(\r\n        address sender,\r\n        uint256 tokenId,\r\n        Proof memory proof,\r\n        uint[2] memory a,\r\n        uint[2] [2] memory b, \r\n        uint[2] memory c, \r\n        uint[1] memory input\r\n        ) \r\n        public\r\n        {\r\n          // check for valid solution\r\n          require(Verifier.verifyTx(proof, input), \"Proof is incorrect\");\r\n          // create a unique key\r\n          bytes32 key = keccak256(abi.encodePacked(a, b, c, input));\r\n          // check if the solution is unique\r\n          require(!solutionMapping[tokenId].verified, \"Solution already exists\");\r\n          // reccord the solution in the solution array\r\n          uint256 index = solutionArray.length;\r\n          Solution memory solution = Solution(index, key, sender, true);\r\n          solutionArray.push(solution);\r\n          // Map the solution in the solution mapping\r\n          solutionMapping[tokenId] = solution;\r\n          // emit according event\r\n          emit newSolutionAdded(sender, tokenId, key);\r\n        }\r\n\r\n// TODO Create a function to mint new NFT only after the solution has been verified\r\n    function mintNewNFT(\r\n            address to, \r\n            uint256 tokenId, \r\n            Proof memory proof,\r\n            uint[2] memory a,\r\n            uint[2] [2] memory b, \r\n            uint[2] memory c, \r\n            uint[1] memory input\r\n            ) \r\n        public \r\n        {\r\n            //  - make sure the solution is unique (has not been used before)\r\n            require(!solutionMapping[tokenId].verified, \"Solution already exists\");\r\n            //  - make sure you handle metadata as well as tokenSuplly\r\n            addSolution(to, tokenId, proof, a, b, c, input);\r\n            super.mint(to, tokenId);\r\n        }\r\n}",
  "sourcePath": "C:/Users/48his/Documents/TP/Blockchain/Blockchain-Capstone/eth-contracts/contracts/SolnSquareVerifier.sol",
  "compiler": {
    "name": "solc",
    "version": "0.5.17+commit.d19bba13.Emscripten.clang"
  },
  "schemaVersion": "3.0.1",
  "updatedAt": "2022-10-03T09:46:51.070Z",
  "devdoc": {
    "methods": {}
  },
  "userdoc": {
    "methods": {}
  }
}