{
  "contractName": "SquareVerifier",
  "abi": [
    {
      "constant": true,
      "inputs": [
        {
          "components": [
            {
              "components": [
                {
                  "internalType": "uint256",
                  "name": "X",
                  "type": "uint256"
                },
                {
                  "internalType": "uint256",
                  "name": "Y",
                  "type": "uint256"
                }
              ],
              "internalType": "struct Pairing.G1Point",
              "name": "a",
              "type": "tuple"
            },
            {
              "components": [
                {
                  "internalType": "uint256[2]",
                  "name": "X",
                  "type": "uint256[2]"
                },
                {
                  "internalType": "uint256[2]",
                  "name": "Y",
                  "type": "uint256[2]"
                }
              ],
              "internalType": "struct Pairing.G2Point",
              "name": "b",
              "type": "tuple"
            },
            {
              "components": [
                {
                  "internalType": "uint256",
                  "name": "X",
                  "type": "uint256"
                },
                {
                  "internalType": "uint256",
                  "name": "Y",
                  "type": "uint256"
                }
              ],
              "internalType": "struct Pairing.G1Point",
              "name": "c",
              "type": "tuple"
            }
          ],
          "internalType": "struct Verifier.Proof",
          "name": "proof",
          "type": "tuple"
        },
        {
          "internalType": "uint256[1]",
          "name": "input",
          "type": "uint256[1]"
        }
      ],
      "name": "verifyTx",
      "outputs": [
        {
          "internalType": "bool",
          "name": "r",
          "type": "bool"
        }
      ],
      "payable": false,
      "stateMutability": "view",
      "type": "function",
      "signature": "0xf48d7729"
    }
  ],
  "bytecode": "0x608060405234801561001057600080fd5b50611050806100206000396000f3fe608060405234801561001057600080fd5b506004361061002b5760003560e01c8063f48d772914610030575b600080fd5b61004a60048036036100459190810190610f07565b610060565b6040516100579190610f54565b60405180910390f35b6000606060016040519080825280602002602001820160405280156100945781602001602082028038833980820191505090505b50905060008090505b60018110156100dc578381600181106100b257fe5b60200201518282815181106100c357fe5b602002602001018181525050808060010191505061009d565b5060006100e98286610105565b14156100f95760019150506100ff565b60009150505b92915050565b6000807f30644e72e131a029b85045b68181585d2833e84879b9709143e1f593f00000019050610133610be8565b61013b610277565b905080608001515160018651011461015257600080fd5b61015a610c2f565b6040518060400160405280600081526020016000815250905060008090505b86518110156101f0578387828151811061018f57fe5b6020026020010151106101a157600080fd5b6101e1826101dc856080015160018501815181106101bb57fe5b60200260200101518a85815181106101cf57fe5b6020026020010151610654565b6106e6565b91508080600101915050610179565b5061021381836080015160008151811061020657fe5b60200260200101516106e6565b90506102598560000151866020015161022b84610797565b856040015161023d8a60400151610797565b876060015161024f8960000151610797565b8960200151610831565b6102695760019350505050610271565b600093505050505b92915050565b61027f610be8565b60405180604001604052807f1ffd2e286d6859d21c31fb84ae88cdd9a56e52c73dec8485ca137cb71e63c25a81526020017f29bf1340ed47da2f3a8c1f4d4b081b538e178a804e7e715a8a04595618c25b3b8152508160000181905250604051806040016040528060405180604001604052807f21c32d1fd262d34cb1880c60cadb0ba5a5b5b5e42a1bf17e784a7f901491e8ba81526020017f26943247e1c02282e8221b1846720a9269780a4990529b0fdaf19a4c736ef482815250815260200160405180604001604052807f0e7c3c5849aab770521d41b95980b8defea92b059717b7f26ff7c969412cd80e81526020017f2ea1380e7acc836ef4eaad3979787f1f0dd06a502a17c6926f8754a30f46b9948152508152508160200181905250604051806040016040528060405180604001604052807f26051a290082322c690b76d7e72c3747a90165b372a2329ba7afb8dc7fc221cd81526020017f0bd60f11df5427bb7724a2cb4f87de471ea86566f1dd8613f2d12e02045322a0815250815260200160405180604001604052807f0f2b585525f47a8b599c605cc0a12949aae9a69d334ebc5c52cae9381b679f1481526020017f0a693dcfa78dd30dd7d803ebc05e4fe26cd900b165da497127c2561d7561c3788152508152508160400181905250604051806040016040528060405180604001604052807f0624163d5a2d0951130177f91f5eaf0e8f6118eab9a6f914fe3bcd8769ac9fc081526020017f04ead341aa9cdaa64f0f6697743e9541fc5402003bc750760867dd9dba40991f815250815260200160405180604001604052807f1d392d6f4a7dc766ae667a3861b752fe34aeb86718549c8e66d8838b4fabc03181526020017f2593d1df9609dcf1ce7cd35a78bfc16097e45e5d7ef2b69cd3ae6e63f74b5ff48152508152508160600181905250600260405190808252806020026020018201604052801561056657816020015b610553610c49565b81526020019060019003908161054b5790505b50816080018190525060405180604001604052807f149f6ba833e407d17ef587f98c3b3baff43b0fe156bd76ab09b1668f38536e4181526020017f2e971fed729ff2d7152af616bb533fc06421b5e47c0d587f0994c3270a1fef8581525081608001516000815181106105d557fe5b602002602001018190525060405180604001604052807f216677f24ca16d3028dca1e6f898bdc5e3f35404e5b949d99d3281527f0bc10281526020017f16c05ad79d3236c981b7fd4096c8b4dbf4c89e881aff028aa47bfe9ef07c4627815250816080015160018151811061064657fe5b602002602001018190525090565b61065c610c2f565b610664610c63565b83600001518160006003811061067657fe5b60200201818152505083602001518160016003811061069157fe5b60200201818152505082816002600381106106a857fe5b602002018181525050600060608360808460076107d05a03fa905080600081146106d1576106d3565bfe5b50806106de57600080fd5b505092915050565b6106ee610c2f565b6106f6610c85565b83600001518160006004811061070857fe5b60200201818152505083602001518160016004811061072357fe5b60200201818152505082600001518160026004811061073e57fe5b60200201818152505082602001518160036004811061075957fe5b602002018181525050600060608360c08460066107d05a03fa9050806000811461078257610784565bfe5b508061078f57600080fd5b505092915050565b61079f610c2f565b60007f30644e72e131a029b85045b68181585d97816a916871ca8d3c208c16d87cfd479050600083600001511480156107dc575060008360200151145b1561080057604051806040016040528060008152602001600081525091505061082c565b6040518060400160405280846000015181526020018285602001518161082257fe5b0683038152509150505b919050565b60006060600460405190808252806020026020018201604052801561087057816020015b61085d610c49565b8152602001906001900390816108555790505b509050606060046040519080825280602002602001820160405280156108b057816020015b61089d610ca7565b8152602001906001900390816108955790505b5090508a826000815181106108c157fe5b602002602001018190525088826001815181106108da57fe5b602002602001018190525086826002815181106108f357fe5b6020026020010181905250848260038151811061090c57fe5b6020026020010181905250898160008151811061092557fe5b6020026020010181905250878160018151811061093e57fe5b6020026020010181905250858160028151811061095757fe5b6020026020010181905250838160038151811061097057fe5b60200260200101819052506109858282610995565b9250505098975050505050505050565b600081518351146109a557600080fd5b60008351905060006006820290506060816040519080825280602002602001820160405280156109e45781602001602082028038833980820191505090505b50905060008090505b83811015610b8a57868181518110610a0157fe5b602002602001015160000151826000600684020181518110610a1f57fe5b602002602001018181525050868181518110610a3757fe5b602002602001015160200151826001600684020181518110610a5557fe5b602002602001018181525050858181518110610a6d57fe5b602002602001015160000151600160028110610a8557fe5b6020020151826002600684020181518110610a9c57fe5b602002602001018181525050858181518110610ab457fe5b602002602001015160000151600060028110610acc57fe5b6020020151826003600684020181518110610ae357fe5b602002602001018181525050858181518110610afb57fe5b602002602001015160200151600160028110610b1357fe5b6020020151826004600684020181518110610b2a57fe5b602002602001018181525050858181518110610b4257fe5b602002602001015160200151600060028110610b5a57fe5b6020020151826005600684020181518110610b7157fe5b60200260200101818152505080806001019150506109ed565b50610b93610ccd565b6000602082602086026020860160086107d05a03fa90508060008114610bb857610bba565bfe5b5080610bc557600080fd5b600082600060018110610bd457fe5b602002015114159550505050505092915050565b6040518060a00160405280610bfb610c49565b8152602001610c08610ca7565b8152602001610c15610ca7565b8152602001610c22610ca7565b8152602001606081525090565b604051806040016040528060008152602001600081525090565b604051806040016040528060008152602001600081525090565b6040518060600160405280600390602082028038833980820191505090505090565b6040518060800160405280600490602082028038833980820191505090505090565b6040518060400160405280610cba610cef565b8152602001610cc7610cef565b81525090565b6040518060200160405280600190602082028038833980820191505090505090565b6040518060400160405280600290602082028038833980820191505090505090565b600082601f830112610d2257600080fd5b6001610d35610d3082610f9c565b610f6f565b91508183856020840282011115610d4b57600080fd5b60005b83811015610d7b5781610d618882610ef2565b845260208401935060208301925050600181019050610d4e565b5050505092915050565b600082601f830112610d9657600080fd5b6002610da9610da482610fbe565b610f6f565b91508183856020840282011115610dbf57600080fd5b60005b83811015610def5781610dd58882610ef2565b845260208401935060208301925050600181019050610dc2565b5050505092915050565b600060408284031215610e0b57600080fd5b610e156040610f6f565b90506000610e2584828501610ef2565b6000830152506020610e3984828501610ef2565b60208301525092915050565b600060808284031215610e5757600080fd5b610e616040610f6f565b90506000610e7184828501610d85565b6000830152506040610e8584828501610d85565b60208301525092915050565b60006101008284031215610ea457600080fd5b610eae6060610f6f565b90506000610ebe84828501610df9565b6000830152506040610ed284828501610e45565b60208301525060c0610ee684828501610df9565b60408301525092915050565b600081359050610f0181610ff6565b92915050565b6000806101208385031215610f1b57600080fd5b6000610f2985828601610e91565b925050610100610f3b85828601610d11565b9150509250929050565b610f4e81610fe0565b82525050565b6000602082019050610f696000830184610f45565b92915050565b6000604051905081810181811067ffffffffffffffff82111715610f9257600080fd5b8060405250919050565b600067ffffffffffffffff821115610fb357600080fd5b602082029050919050565b600067ffffffffffffffff821115610fd557600080fd5b602082029050919050565b60008115159050919050565b6000819050919050565b610fff81610fec565b811461100a57600080fd5b5056fea365627a7a7231582000da2a89a76c0912f8107793e152cdc80eadf1dd3b53e8d0bd48de0968987be16c6578706572696d656e74616cf564736f6c63430005110040",
  "source": "pragma experimental ABIEncoderV2;\r\npragma solidity >=0.4.21 <0.6.0;\r\n\r\nimport \"./ERC721Mintable.sol\";\r\nimport \"./verifier.sol\";\r\n\r\n// TODO define a contract call to the zokrates generated solidity contract <Verifier> or <renamedVerifier>\r\ncontract SquareVerifier is Verifier {}\r\n\r\n// TODO define another contract named SolnSquareVerifier that inherits from your ERC721Mintable class\r\ncontract SolnSquareVerifier is CustomERC721Token {\r\n\r\n// TODO define a solutions struct that can hold an index & an address\r\n    struct Solution {\r\n        uint256 index;\r\n        address _address;\r\n    }\r\n\r\n// TODO define an array of the above struct\r\n    Solution[] solutionArray;\r\n\r\n// TODO define a mapping to store unique solutions submitted\r\n    mapping(bytes32 => Solution) private solutionMap;\r\n\r\n// TODO Create an event to emit when a solution is added\r\n    event newSolution(address _address, uint256 _index);\r\n\r\n// TODO Create a function to add the solutions to the array and emit the event\r\n    function solutionCreated(bytes32 solutionHash, address _address, uint256 _index) public\r\n        {\r\n            // Add solution elements to mapping of solutions with solver(solution) as key\r\n            solutionMap[solutionHash]._address = _address;\r\n            solutionMap[solutionHash].index = _index;\r\n            // Push solution to array\r\n            solutionArray.push(solutionMap[solutionHash]);\r\n            // Emit new solution event\r\n            emit newSolution(_address, _index);\r\n        }\r\n\r\n// TODO Create a function to mint new NFT only after the solution has been verified\r\n    function mintNewNFT(\r\n        address _address, \r\n        uint256 tokenId,\r\n        uint[2] memory a,\r\n        uint[2][2] memory b,\r\n        uint[2] memory c,\r\n        uint[2] memory d\r\n        ) \r\n        public \r\n        {\r\n            // Generate hash from solution data to use as key in solutionMap\r\n            bytes32 solutionHash = keccak256(abi.encodePacked(a, b, c, d));\r\n            //  - make sure the solution is unique (has not been used before)\r\n            require(solutionMap[solutionHash]._address == address(0), \"This solution already exists.\");\r\n            //  - make sure you handle metadata as well as tokenSuplly\r\n            solutionCreated(solutionHash, _address, tokenId);\r\n            super.mint(_address, tokenId);\r\n        }\r\n}",
  "sourcePath": "C:/Users/48his/Documents/TP/Blockchain/Blockchain-Capstone/eth-contracts/contracts/SolnSquareVerifier.sol",
  "compiler": {
    "name": "solc",
    "version": "0.5.17+commit.d19bba13.Emscripten.clang"
  },
  "schemaVersion": "3.0.1",
  "updatedAt": "2022-09-27T09:53:24.331Z",
  "devdoc": {
    "methods": {}
  },
  "userdoc": {
    "methods": {}
  }
}